{
  "_format": "hh-sol-artifact-1",
  "contractName": "FethBetRouter",
  "sourceName": "contracts/FethBetRouter.sol",
  "abi": [
    {
      "inputs": [],
      "stateMutability": "nonpayable",
      "type": "constructor"
    },
    {
      "anonymous": false,
      "inputs": [
        {
          "indexed": false,
          "internalType": "address",
          "name": "deplpoyedAddr",
          "type": "address"
        },
        {
          "indexed": false,
          "internalType": "uint256",
          "name": "eventId",
          "type": "uint256"
        }
      ],
      "name": "FixtureCreated",
      "type": "event"
    },
    {
      "anonymous": false,
      "inputs": [
        {
          "indexed": true,
          "internalType": "bytes32",
          "name": "role",
          "type": "bytes32"
        },
        {
          "indexed": true,
          "internalType": "bytes32",
          "name": "previousAdminRole",
          "type": "bytes32"
        },
        {
          "indexed": true,
          "internalType": "bytes32",
          "name": "newAdminRole",
          "type": "bytes32"
        }
      ],
      "name": "RoleAdminChanged",
      "type": "event"
    },
    {
      "anonymous": false,
      "inputs": [
        {
          "indexed": true,
          "internalType": "bytes32",
          "name": "role",
          "type": "bytes32"
        },
        {
          "indexed": true,
          "internalType": "address",
          "name": "account",
          "type": "address"
        },
        {
          "indexed": true,
          "internalType": "address",
          "name": "sender",
          "type": "address"
        }
      ],
      "name": "RoleGranted",
      "type": "event"
    },
    {
      "anonymous": false,
      "inputs": [
        {
          "indexed": true,
          "internalType": "bytes32",
          "name": "role",
          "type": "bytes32"
        },
        {
          "indexed": true,
          "internalType": "address",
          "name": "account",
          "type": "address"
        },
        {
          "indexed": true,
          "internalType": "address",
          "name": "sender",
          "type": "address"
        }
      ],
      "name": "RoleRevoked",
      "type": "event"
    },
    {
      "inputs": [],
      "name": "AUDITOR_ROLE",
      "outputs": [
        {
          "internalType": "bytes32",
          "name": "",
          "type": "bytes32"
        }
      ],
      "stateMutability": "view",
      "type": "function"
    },
    {
      "inputs": [],
      "name": "DEFAULT_ADMIN_ROLE",
      "outputs": [
        {
          "internalType": "bytes32",
          "name": "",
          "type": "bytes32"
        }
      ],
      "stateMutability": "view",
      "type": "function"
    },
    {
      "inputs": [
        {
          "internalType": "address",
          "name": "_newAddr",
          "type": "address"
        }
      ],
      "name": "addNewAuditor",
      "outputs": [],
      "stateMutability": "nonpayable",
      "type": "function"
    },
    {
      "inputs": [
        {
          "internalType": "uint256",
          "name": "_eventId",
          "type": "uint256"
        }
      ],
      "name": "cancelFixture",
      "outputs": [],
      "stateMutability": "nonpayable",
      "type": "function"
    },
    {
      "inputs": [
        {
          "internalType": "uint256",
          "name": "_leagueId",
          "type": "uint256"
        },
        {
          "internalType": "uint256",
          "name": "_eventId",
          "type": "uint256"
        },
        {
          "internalType": "uint256",
          "name": "_timestamp",
          "type": "uint256"
        }
      ],
      "name": "createFixture",
      "outputs": [],
      "stateMutability": "nonpayable",
      "type": "function"
    },
    {
      "inputs": [
        {
          "internalType": "uint256",
          "name": "",
          "type": "uint256"
        }
      ],
      "name": "fixturesDeployed",
      "outputs": [
        {
          "internalType": "address",
          "name": "",
          "type": "address"
        }
      ],
      "stateMutability": "view",
      "type": "function"
    },
    {
      "inputs": [
        {
          "internalType": "bytes32",
          "name": "role",
          "type": "bytes32"
        }
      ],
      "name": "getRoleAdmin",
      "outputs": [
        {
          "internalType": "bytes32",
          "name": "",
          "type": "bytes32"
        }
      ],
      "stateMutability": "view",
      "type": "function"
    },
    {
      "inputs": [
        {
          "internalType": "bytes32",
          "name": "role",
          "type": "bytes32"
        },
        {
          "internalType": "address",
          "name": "account",
          "type": "address"
        }
      ],
      "name": "grantRole",
      "outputs": [],
      "stateMutability": "nonpayable",
      "type": "function"
    },
    {
      "inputs": [
        {
          "internalType": "bytes32",
          "name": "role",
          "type": "bytes32"
        },
        {
          "internalType": "address",
          "name": "account",
          "type": "address"
        }
      ],
      "name": "hasRole",
      "outputs": [
        {
          "internalType": "bool",
          "name": "",
          "type": "bool"
        }
      ],
      "stateMutability": "view",
      "type": "function"
    },
    {
      "inputs": [],
      "name": "latestFixtureAdded",
      "outputs": [
        {
          "internalType": "address",
          "name": "",
          "type": "address"
        }
      ],
      "stateMutability": "view",
      "type": "function"
    },
    {
      "inputs": [
        {
          "internalType": "bytes32",
          "name": "role",
          "type": "bytes32"
        },
        {
          "internalType": "address",
          "name": "account",
          "type": "address"
        }
      ],
      "name": "renounceRole",
      "outputs": [],
      "stateMutability": "nonpayable",
      "type": "function"
    },
    {
      "inputs": [
        {
          "internalType": "bytes32",
          "name": "role",
          "type": "bytes32"
        },
        {
          "internalType": "address",
          "name": "account",
          "type": "address"
        }
      ],
      "name": "revokeRole",
      "outputs": [],
      "stateMutability": "nonpayable",
      "type": "function"
    },
    {
      "inputs": [
        {
          "internalType": "address",
          "name": "_addr",
          "type": "address"
        }
      ],
      "name": "setLinkPool",
      "outputs": [],
      "stateMutability": "nonpayable",
      "type": "function"
    },
    {
      "inputs": [
        {
          "internalType": "bytes4",
          "name": "interfaceId",
          "type": "bytes4"
        }
      ],
      "name": "supportsInterface",
      "outputs": [
        {
          "internalType": "bool",
          "name": "",
          "type": "bool"
        }
      ],
      "stateMutability": "view",
      "type": "function"
    }
  ],
  "bytecode": "0x60806040523480156200001157600080fd5b50620000276000801b336200008460201b60201c565b620000597f59a1c48e5837ad7a7f3dcedcbe129bf3249ec4fbf651fd4f5e2600ead39fe2f5336200009a60201b60201c565b6200007e73d0eedecb88d7e6ef365a46786d9e29f8c29dd46c6200018b60201b60201c565b62000338565b6200009682826200009a60201b60201c565b5050565b620000ac82826200024360201b60201c565b6200018757600160008084815260200190815260200160002060000160008373ffffffffffffffffffffffffffffffffffffffff1673ffffffffffffffffffffffffffffffffffffffff16815260200190815260200160002060006101000a81548160ff0219169083151502179055506200012c620002ad60201b60201c565b73ffffffffffffffffffffffffffffffffffffffff168173ffffffffffffffffffffffffffffffffffffffff16837f2f8788117e7eff1d82e926ec794901d17c78024a50270940304540a733656f0d60405160405180910390a45b5050565b620001bd7f59a1c48e5837ad7a7f3dcedcbe129bf3249ec4fbf651fd4f5e2600ead39fe2f5336200024360201b60201c565b620001ff576040517f08c379a0000000000000000000000000000000000000000000000000000000008152600401620001f690620002dc565b60405180910390fd5b80600260006101000a81548173ffffffffffffffffffffffffffffffffffffffff021916908373ffffffffffffffffffffffffffffffffffffffff16021790555050565b600080600084815260200190815260200160002060000160008373ffffffffffffffffffffffffffffffffffffffff1673ffffffffffffffffffffffffffffffffffffffff16815260200190815260200160002060009054906101000a900460ff16905092915050565b600033905090565b6000620002c4601883620002fe565b9150620002d1826200030f565b602082019050919050565b60006020820190508181036000830152620002f781620002b5565b9050919050565b600082825260208201905092915050565b7f43616c6c6572206973206e6f7420616e2061756469746f720000000000000000600082015250565b6154c480620003486000396000f3fe60806040523480156200001157600080fd5b5060043610620001005760003560e01c8063706c89a11162000099578063c2b1484b116200006f578063c2b1484b14620002a1578063cb7c625814620002c3578063d547741f14620002e3578063fd102d1814620003035762000100565b8063706c89a1146200021357806391d148541462000249578063a217fddf146200027f5762000100565b806336568abe11620000db57806336568abe14620001915780634c0dc8a814620001b15780636817617914620001d15780636e1d616e14620001f15762000100565b806301ffc9a71462000105578063248a9ca3146200013b5780632f2ff15d1462000171575b600080fd5b6200012360048036038101906200011d919062001235565b62000323565b6040516200013291906200157a565b60405180910390f35b620001596004803603810190620001539190620011c8565b620003a0565b60405162000168919062001597565b60405180910390f35b6200018f6004803603810190620001899190620011f4565b620003bf565b005b620001af6004803603810190620001a99190620011f4565b620003f0565b005b620001cf6004803603810190620001c991906200119c565b6200047a565b005b620001ef6004803603810190620001e9919062001261565b6200052c565b005b620001fb620006d8565b6040516200020a919062001597565b60405180910390f35b6200023160048036038101906200022b919062001261565b620006fc565b60405162000240919062001503565b60405180910390f35b620002676004803603810190620002619190620011f4565b6200072f565b6040516200027691906200157a565b60405180910390f35b6200028962000799565b60405162000298919062001597565b60405180910390f35b620002ab620007a0565b604051620002ba919062001503565b60405180910390f35b620002e16004803603810190620002db91906200119c565b620007c6565b005b620003016004803603810190620002fb9190620011f4565b6200082b565b005b6200032160048036038101906200031b91906200128d565b6200085c565b005b60007f7965db0b000000000000000000000000000000000000000000000000000000007bffffffffffffffffffffffffffffffffffffffffffffffffffffffff1916827bffffffffffffffffffffffffffffffffffffffffffffffffffffffff19161480620003995750620003988262000b3e565b5b9050919050565b6000806000838152602001908152602001600020600101549050919050565b620003ca82620003a0565b620003df81620003d962000ba8565b62000bb0565b620003eb838362000c58565b505050565b620003fa62000ba8565b73ffffffffffffffffffffffffffffffffffffffff168173ffffffffffffffffffffffffffffffffffffffff16146200046a576040517f08c379a0000000000000000000000000000000000000000000000000000000008152600401620004619062001660565b60405180910390fd5b62000476828262000d3d565b5050565b620004a67f59a1c48e5837ad7a7f3dcedcbe129bf3249ec4fbf651fd4f5e2600ead39fe2f5336200072f565b620004e8576040517f08c379a0000000000000000000000000000000000000000000000000000000008152600401620004df90620015fa565b60405180910390fd5b80600260006101000a81548173ffffffffffffffffffffffffffffffffffffffff021916908373ffffffffffffffffffffffffffffffffffffffff16021790555050565b620005587f59a1c48e5837ad7a7f3dcedcbe129bf3249ec4fbf651fd4f5e2600ead39fe2f5336200072f565b6200059a576040517f08c379a00000000000000000000000000000000000000000000000000000000081526004016200059190620015fa565b60405180910390fd5b600073ffffffffffffffffffffffffffffffffffffffff166001600083815260200190815260200160002060009054906101000a900473ffffffffffffffffffffffffffffffffffffffff1673ffffffffffffffffffffffffffffffffffffffff16141562000640576040517f08c379a000000000000000000000000000000000000000000000000000000000815260040162000637906200163e565b60405180910390fd5b6001600082815260200190815260200160002060009054906101000a900473ffffffffffffffffffffffffffffffffffffffff1673ffffffffffffffffffffffffffffffffffffffff16639b5c7d276040518163ffffffff1660e01b8152600401600060405180830381600087803b158015620006bc57600080fd5b505af1158015620006d1573d6000803e3d6000fd5b5050505050565b7f59a1c48e5837ad7a7f3dcedcbe129bf3249ec4fbf651fd4f5e2600ead39fe2f581565b60016020528060005260406000206000915054906101000a900473ffffffffffffffffffffffffffffffffffffffff1681565b600080600084815260200190815260200160002060000160008373ffffffffffffffffffffffffffffffffffffffff1673ffffffffffffffffffffffffffffffffffffffff16815260200190815260200160002060009054906101000a900460ff16905092915050565b6000801b81565b600360009054906101000a900473ffffffffffffffffffffffffffffffffffffffff1681565b620007f27f59a1c48e5837ad7a7f3dcedcbe129bf3249ec4fbf651fd4f5e2600ead39fe2f5336200072f565b620007fc57600080fd5b620008287f59a1c48e5837ad7a7f3dcedcbe129bf3249ec4fbf651fd4f5e2600ead39fe2f58262000c58565b50565b6200083682620003a0565b6200084b816200084562000ba8565b62000bb0565b62000857838362000d3d565b505050565b620008887f59a1c48e5837ad7a7f3dcedcbe129bf3249ec4fbf651fd4f5e2600ead39fe2f5336200072f565b620008ca576040517f08c379a0000000000000000000000000000000000000000000000000000000008152600401620008c190620015fa565b60405180910390fd5b600073ffffffffffffffffffffffffffffffffffffffff166001600084815260200190815260200160002060009054906101000a900473ffffffffffffffffffffffffffffffffffffffff1673ffffffffffffffffffffffffffffffffffffffff16146200096f576040517f08c379a000000000000000000000000000000000000000000000000000000000815260040162000966906200161c565b60405180910390fd5b828282604051620009809062001132565b6200098e9392919062001682565b604051809103906000f080158015620009ab573d6000803e3d6000fd5b506001600084815260200190815260200160002060006101000a81548173ffffffffffffffffffffffffffffffffffffffff021916908373ffffffffffffffffffffffffffffffffffffffff160217905550600260009054906101000a900473ffffffffffffffffffffffffffffffffffffffff1673ffffffffffffffffffffffffffffffffffffffff1663f79a33106001600085815260200190815260200160002060009054906101000a900473ffffffffffffffffffffffffffffffffffffffff16670de0b6b3a76400006040518363ffffffff1660e01b815260040162000a9792919062001520565b600060405180830381600087803b15801562000ab257600080fd5b505af115801562000ac7573d6000803e3d6000fd5b505050507fb8f5b5952d1cc511ef84cd33394343cedb48ad90ca263c5313dd64b7767f67ff6001600084815260200190815260200160002060009054906101000a900473ffffffffffffffffffffffffffffffffffffffff168360405162000b319291906200154d565b60405180910390a1505050565b60007f01ffc9a7000000000000000000000000000000000000000000000000000000007bffffffffffffffffffffffffffffffffffffffffffffffffffffffff1916827bffffffffffffffffffffffffffffffffffffffffffffffffffffffff1916149050919050565b600033905090565b62000bbc82826200072f565b62000c545762000be48173ffffffffffffffffffffffffffffffffffffffff16601462000e23565b62000bf48360001c602062000e23565b60405160200162000c07929190620014c1565b6040516020818303038152906040526040517f08c379a000000000000000000000000000000000000000000000000000000000815260040162000c4b9190620015b4565b60405180910390fd5b5050565b62000c6482826200072f565b62000d3957600160008084815260200190815260200160002060000160008373ffffffffffffffffffffffffffffffffffffffff1673ffffffffffffffffffffffffffffffffffffffff16815260200190815260200160002060006101000a81548160ff02191690831515021790555062000cde62000ba8565b73ffffffffffffffffffffffffffffffffffffffff168173ffffffffffffffffffffffffffffffffffffffff16837f2f8788117e7eff1d82e926ec794901d17c78024a50270940304540a733656f0d60405160405180910390a45b5050565b62000d4982826200072f565b1562000e1f57600080600084815260200190815260200160002060000160008373ffffffffffffffffffffffffffffffffffffffff1673ffffffffffffffffffffffffffffffffffffffff16815260200190815260200160002060006101000a81548160ff02191690831515021790555062000dc462000ba8565b73ffffffffffffffffffffffffffffffffffffffff168173ffffffffffffffffffffffffffffffffffffffff16837ff6391f5c32d9c69d2a47ea670b442974b53935d1edc7fd64eb21e047a839171b60405160405180910390a45b5050565b60606000600283600262000e38919062001743565b62000e449190620016e6565b67ffffffffffffffff81111562000e84577f4e487b7100000000000000000000000000000000000000000000000000000000600052604160045260246000fd5b6040519080825280601f01601f19166020018201604052801562000eb75781602001600182028036833780820191505090505b5090507f30000000000000000000000000000000000000000000000000000000000000008160008151811062000f16577f4e487b7100000000000000000000000000000000000000000000000000000000600052603260045260246000fd5b60200101907effffffffffffffffffffffffffffffffffffffffffffffffffffffffffffff1916908160001a9053507f78000000000000000000000000000000000000000000000000000000000000008160018151811062000fa1577f4e487b7100000000000000000000000000000000000000000000000000000000600052603260045260246000fd5b60200101907effffffffffffffffffffffffffffffffffffffffffffffffffffffffffffff1916908160001a9053506000600184600262000fe3919062001743565b62000fef9190620016e6565b90505b6001811115620010e1577f3031323334353637383961626364656600000000000000000000000000000000600f86166010811062001059577f4e487b7100000000000000000000000000000000000000000000000000000000600052603260045260246000fd5b1a60f81b82828151811062001097577f4e487b7100000000000000000000000000000000000000000000000000000000600052603260045260246000fd5b60200101907effffffffffffffffffffffffffffffffffffffffffffffffffffffffffffff1916908160001a905350600485901c945080620010d9906200186e565b905062000ff2565b506000841462001128576040517f08c379a00000000000000000000000000000000000000000000000000000000081526004016200111f90620015d8565b60405180910390fd5b8091505092915050565b6139de8062001ab183390190565b600081359050620011518162001a48565b92915050565b600081359050620011688162001a62565b92915050565b6000813590506200117f8162001a7c565b92915050565b600081359050620011968162001a96565b92915050565b600060208284031215620011af57600080fd5b6000620011bf8482850162001140565b91505092915050565b600060208284031215620011db57600080fd5b6000620011eb8482850162001157565b91505092915050565b600080604083850312156200120857600080fd5b6000620012188582860162001157565b92505060206200122b8582860162001140565b9150509250929050565b6000602082840312156200124857600080fd5b600062001258848285016200116e565b91505092915050565b6000602082840312156200127457600080fd5b6000620012848482850162001185565b91505092915050565b600080600060608486031215620012a357600080fd5b6000620012b38682870162001185565b9350506020620012c68682870162001185565b9250506040620012d98682870162001185565b9150509250925092565b620012ee81620017a4565b82525050565b620012ff81620017b8565b82525050565b6200131081620017c4565b82525050565b620013218162001824565b82525050565b60006200133482620016bf565b620013408185620016ca565b93506200135281856020860162001838565b6200135d81620018cc565b840191505092915050565b60006200137582620016bf565b620013818185620016db565b93506200139381856020860162001838565b80840191505092915050565b6000620013ae602083620016ca565b9150620013bb82620018dd565b602082019050919050565b6000620013d5601883620016ca565b9150620013e28262001906565b602082019050919050565b6000620013fc601683620016ca565b915062001409826200192f565b602082019050919050565b600062001423603883620016ca565b9150620014308262001958565b604082019050919050565b60006200144a601783620016db565b91506200145782620019a7565b601782019050919050565b600062001471601183620016db565b91506200147e82620019d0565b601182019050919050565b600062001498602f83620016ca565b9150620014a582620019f9565b604082019050919050565b620014bb816200181a565b82525050565b6000620014ce826200143b565b9150620014dc828562001368565b9150620014e98262001462565b9150620014f7828462001368565b91508190509392505050565b60006020820190506200151a6000830184620012e3565b92915050565b6000604082019050620015376000830185620012e3565b62001546602083018462001316565b9392505050565b6000604082019050620015646000830185620012e3565b620015736020830184620014b0565b9392505050565b6000602082019050620015916000830184620012f4565b92915050565b6000602082019050620015ae600083018462001305565b92915050565b60006020820190508181036000830152620015d0818462001327565b905092915050565b60006020820190508181036000830152620015f3816200139f565b9050919050565b600060208201905081810360008301526200161581620013c6565b9050919050565b600060208201905081810360008301526200163781620013ed565b9050919050565b60006020820190508181036000830152620016598162001414565b9050919050565b600060208201905081810360008301526200167b8162001489565b9050919050565b6000606082019050620016996000830186620014b0565b620016a86020830185620014b0565b620016b76040830184620014b0565b949350505050565b600081519050919050565b600082825260208201905092915050565b600081905092915050565b6000620016f3826200181a565b915062001700836200181a565b9250827fffffffffffffffffffffffffffffffffffffffffffffffffffffffffffffffff038211156200173857620017376200189d565b5b828201905092915050565b600062001750826200181a565b91506200175d836200181a565b9250817fffffffffffffffffffffffffffffffffffffffffffffffffffffffffffffffff04831182151516156200179957620017986200189d565b5b828202905092915050565b6000620017b182620017fa565b9050919050565b60008115159050919050565b6000819050919050565b60007fffffffff0000000000000000000000000000000000000000000000000000000082169050919050565b600073ffffffffffffffffffffffffffffffffffffffff82169050919050565b6000819050919050565b600062001831826200181a565b9050919050565b60005b83811015620018585780820151818401526020810190506200183b565b8381111562001868576000848401525b50505050565b60006200187b826200181a565b915060008214156200189257620018916200189d565b5b600182039050919050565b7f4e487b7100000000000000000000000000000000000000000000000000000000600052601160045260246000fd5b6000601f19601f8301169050919050565b7f537472696e67733a20686578206c656e67746820696e73756666696369656e74600082015250565b7f43616c6c6572206973206e6f7420616e2061756469746f720000000000000000600082015250565b7f6669787475726520616c72656164792065786973747300000000000000000000600082015250565b7f6669787475726520636f6e747261637420776974682074686973206576656e7460008201527f496420686173206e6f74206265656e206465706c6f7965640000000000000000602082015250565b7f416363657373436f6e74726f6c3a206163636f756e7420000000000000000000600082015250565b7f206973206d697373696e6720726f6c6520000000000000000000000000000000600082015250565b7f416363657373436f6e74726f6c3a2063616e206f6e6c792072656e6f756e636560008201527f20726f6c657320666f722073656c660000000000000000000000000000000000602082015250565b62001a5381620017a4565b811462001a5f57600080fd5b50565b62001a6d81620017c4565b811462001a7957600080fd5b50565b62001a8781620017ce565b811462001a9357600080fd5b50565b62001aa1816200181a565b811462001aad57600080fd5b5056fe608060405260016004556001600d60006101000a81548160ff0219169083151502179055506000600d60016101000a81548160ff0219169083151502179055506001600e556001600f55655af3107a3fff6016553480156200006057600080fd5b50604051620039de380380620039de8339818101604052810190620000869190620001ce565b33600760006101000a81548173ffffffffffffffffffffffffffffffffffffffff021916908373ffffffffffffffffffffffffffffffffffffffff160217905550826008819055508160098190555080600a819055506200010173a36085f69e2889c224210f603d836748e7dc00886200012f60201b60201c565b620001267374ecc8bdeb76f2c6760ed2dc8a46ca5e581fa6566200017360201b60201c565b50505062000248565b80600260006101000a81548173ffffffffffffffffffffffffffffffffffffffff021916908373ffffffffffffffffffffffffffffffffffffffff16021790555050565b80600360006101000a81548173ffffffffffffffffffffffffffffffffffffffff021916908373ffffffffffffffffffffffffffffffffffffffff16021790555050565b600081519050620001c8816200022e565b92915050565b600080600060608486031215620001e457600080fd5b6000620001f486828701620001b7565b93505060206200020786828701620001b7565b92505060406200021a86828701620001b7565b9150509250925092565b6000819050919050565b620002398162000224565b81146200024557600080fd5b50565b61378680620002586000396000f3fe60806040526004361061019c5760003560e01c80637b352962116100ec578063c3b758e71161008a578063d972e89c11610064578063d972e89c14610527578063dc3db5991461053e578063dfbf53ae1461057b578063e7a6ee88146105a65761019c565b8063c3b758e714610496578063d38d9639146104bf578063d4ccf545146104ea5761019c565b80639b5c7d27116100c65780639b5c7d2714610411578063a21d942f14610428578063ac428e7a1461043f578063b6a1f7a21461046b5761019c565b80637b352962146103905780638bf26389146103bb57806395ee1221146103e65761019c565b8063334adea9116101595780636adf56c7116101335780636adf56c71461030c5780636db5fc9c1461032357806370b7596b1461034e57806373d4a13a146103655761019c565b8063334adea91461028f578063386748fe146102b8578063464800af146102e15761019c565b8063089cdd0c146101a15780630a95cd80146101cc578063141248b9146101f757806316ada547146102225780631a8972041461024d57806325402e7414610278575b600080fd5b3480156101ad57600080fd5b506101b66105c2565b6040516101c39190612e2f565b60405180910390f35b3480156101d857600080fd5b506101e16105c8565b6040516101ee9190612d2d565b60405180910390f35b34801561020357600080fd5b5061020c610656565b6040516102199190612e2f565b60405180910390f35b34801561022e57600080fd5b5061023761065c565b6040516102449190612e2f565b60405180910390f35b34801561025957600080fd5b50610262610662565b60405161026f9190612e2f565b60405180910390f35b34801561028457600080fd5b5061028d610668565b005b34801561029b57600080fd5b506102b660048036038101906102b191906128e4565b610789565b005b3480156102c457600080fd5b506102df60048036038101906102da91906128e4565b610909565b005b3480156102ed57600080fd5b506102f6610a89565b6040516103039190612e2f565b60405180910390f35b34801561031857600080fd5b50610321610a8f565b005b34801561032f57600080fd5b50610338610a91565b6040516103459190612d2d565b60405180910390f35b34801561035a57600080fd5b50610363610b1f565b005b34801561037157600080fd5b5061037a610ef3565b6040516103879190612d0b565b60405180910390f35b34801561039c57600080fd5b506103a5610f81565b6040516103b29190612cf0565b60405180910390f35b3480156103c757600080fd5b506103d0610f94565b6040516103dd9190612e2f565b60405180910390f35b3480156103f257600080fd5b506103fb610f9a565b6040516104089190612cf0565b60405180910390f35b34801561041d57600080fd5b50610426610fad565b005b34801561043457600080fd5b5061043d611024565b005b34801561044b57600080fd5b5061045461103d565b604051610462929190612e4a565b60405180910390f35b34801561047757600080fd5b5061048061110b565b60405161048d9190612e2f565b60405180910390f35b3480156104a257600080fd5b506104bd60048036038101906104b89190612892565b611111565b005b3480156104cb57600080fd5b506104d46112d6565b6040516104e19190612d2d565b60405180910390f35b3480156104f657600080fd5b50610511600480360381019061050c9190612869565b611364565b60405161051e9190612e2f565b60405180910390f35b34801561053357600080fd5b5061053c61137c565b005b34801561054a57600080fd5b5061056560048036038101906105609190612869565b611504565b6040516105729190612e2f565b60405180910390f35b34801561058757600080fd5b5061059061151c565b60405161059d9190612e2f565b60405180910390f35b6105c060048036038101906105bb9190612892565b611522565b005b60095481565b601580546105d5906132b7565b80601f0160208091040260200160405190810160405280929190818152602001828054610601906132b7565b801561064e5780601f106106235761010080835404028352916020019161064e565b820191906000526020600020905b81548152906001019060200180831161063157829003601f168201915b505050505081565b60135481565b600a5481565b600f5481565b60016016546106779190612f40565b43116106b8576040517f08c379a00000000000000000000000000000000000000000000000000000000081526004016106af90612def565b60405180910390fd5b6106c0611623565b6106c861176e565b60145460135411156106e1576001601081905550610704565b60145460135414156106fa576002601081905550610703565b60036010819055505b5b600a5442111561072e576001600d60006101000a81548160ff02191690831515021790555061074a565b6001600d60006101000a81548160ff0219169083151502179055505b7fd9010b1425bd2a0c19f6b8a53728719ed04087563fc41a0c5c531f31250d202960135460145460405161077f929190612e73565b60405180910390a1565b816005600082815260200190815260200160002060009054906101000a900473ffffffffffffffffffffffffffffffffffffffff1673ffffffffffffffffffffffffffffffffffffffff163373ffffffffffffffffffffffffffffffffffffffff161461082b576040517f08c379a000000000000000000000000000000000000000000000000000000000815260040161082290612dcf565b60405180910390fd5b6005600082815260200190815260200160002060006101000a81549073ffffffffffffffffffffffffffffffffffffffff0219169055807f7cc135e0cebb02c3480ae5d74d377283180a2601f8f644edf7987b009316c63a60405160405180910390a28160405161089c9190612ba3565b6040518091039020837f1a111c5dcf9a71088bd5e1797fdfaf399fec2afbb24aca247e4e3e9f4b61df9160405160405180910390a381600690805190602001906108e79291906125e1565b50600660119080546108f8906132b7565b610903929190612667565b50505050565b816005600082815260200190815260200160002060009054906101000a900473ffffffffffffffffffffffffffffffffffffffff1673ffffffffffffffffffffffffffffffffffffffff163373ffffffffffffffffffffffffffffffffffffffff16146109ab576040517f08c379a00000000000000000000000000000000000000000000000000000000081526004016109a290612dcf565b60405180910390fd5b6005600082815260200190815260200160002060006101000a81549073ffffffffffffffffffffffffffffffffffffffff0219169055807f7cc135e0cebb02c3480ae5d74d377283180a2601f8f644edf7987b009316c63a60405160405180910390a281604051610a1c9190612ba3565b6040518091039020837f1a111c5dcf9a71088bd5e1797fdfaf399fec2afbb24aca247e4e3e9f4b61df9160405160405180910390a38160069080519060200190610a679291906125e1565b5060066012908054610a78906132b7565b610a83929190612667565b50505050565b60085481565b565b60118054610a9e906132b7565b80601f0160208091040260200160405190810160405280929190818152602001828054610aca906132b7565b8015610b175780601f10610aec57610100808354040283529160200191610b17565b820191906000526020600020905b815481529060010190602001808311610afa57829003601f168201915b505050505081565b600d60019054906101000a900460ff1615610b6f576040517f08c379a0000000000000000000000000000000000000000000000000000000008152600401610b6690612daf565b60405180910390fd5b600d60009054906101000a900460ff16610bbe576040517f08c379a0000000000000000000000000000000000000000000000000000000008152600401610bb590612e0f565b60405180910390fd5b600060016010541415610c8157600f54600e54610bdb9190612f40565b600b60003373ffffffffffffffffffffffffffffffffffffffff1673ffffffffffffffffffffffffffffffffffffffff16815260200190815260200160002054610c259190613138565b9050600e5481610c359190612f96565b90506000600b60003373ffffffffffffffffffffffffffffffffffffffff1673ffffffffffffffffffffffffffffffffffffffff16815260200190815260200160002081905550610e66565b60026010541415610da757600c60003373ffffffffffffffffffffffffffffffffffffffff1673ffffffffffffffffffffffffffffffffffffffff16815260200190815260200160002054600b60003373ffffffffffffffffffffffffffffffffffffffff1673ffffffffffffffffffffffffffffffffffffffff16815260200190815260200160002054610d169190612f40565b90506000600b60003373ffffffffffffffffffffffffffffffffffffffff1673ffffffffffffffffffffffffffffffffffffffff168152602001908152602001600020819055506000600c60003373ffffffffffffffffffffffffffffffffffffffff1673ffffffffffffffffffffffffffffffffffffffff16815260200190815260200160002081905550610e65565b60036010541415610e6457600f54600e54610dc29190612f40565b600c60003373ffffffffffffffffffffffffffffffffffffffff1673ffffffffffffffffffffffffffffffffffffffff16815260200190815260200160002054610e0c9190613138565b9050600f5481610e1c9190612f96565b90506000600c60003373ffffffffffffffffffffffffffffffffffffffff1673ffffffffffffffffffffffffffffffffffffffff168152602001908152602001600020819055505b5b5b60008111610ea9576040517f08c379a0000000000000000000000000000000000000000000000000000000008152600401610ea090612d4f565b60405180910390fd5b3373ffffffffffffffffffffffffffffffffffffffff166108fc829081150290604051600060405180830381858888f19350505050158015610eef573d6000803e3d6000fd5b5050565b60068054610f00906132b7565b80601f0160208091040260200160405190810160405280929190818152602001828054610f2c906132b7565b8015610f795780601f10610f4e57610100808354040283529160200191610f79565b820191906000526020600020905b815481529060010190602001808311610f5c57829003601f168201915b505050505081565b600d60009054906101000a900460ff1681565b600e5481565b600d60019054906101000a900460ff1681565b600760009054906101000a900473ffffffffffffffffffffffffffffffffffffffff1673ffffffffffffffffffffffffffffffffffffffff163373ffffffffffffffffffffffffffffffffffffffff161461100757600080fd5b6001600d60016101000a81548160ff021916908315150217905550565b61102c6118b9565b611034611a54565b43601681905550565b600080600073a36085f69e2889c224210f603d836748e7dc008873ffffffffffffffffffffffffffffffffffffffff166370a08231306040518263ffffffff1660e01b815260040161108f9190612c21565b60206040518083038186803b1580156110a757600080fd5b505afa1580156110bb573d6000803e3d6000fd5b505050506040513d601f19601f820116820180604052508101906110df9190612938565b90506702c68af0bb1400008111156110fe578060019250925050611107565b80600092509250505b9091565b60145481565b600081156111a557600b60003373ffffffffffffffffffffffffffffffffffffffff1673ffffffffffffffffffffffffffffffffffffffff1681526020019081526020016000205490506000600b60003373ffffffffffffffffffffffffffffffffffffffff1673ffffffffffffffffffffffffffffffffffffffff1681526020019081526020016000208190555061122d565b600c60003373ffffffffffffffffffffffffffffffffffffffff1673ffffffffffffffffffffffffffffffffffffffff1681526020019081526020016000205490506000600c60003373ffffffffffffffffffffffffffffffffffffffff1673ffffffffffffffffffffffffffffffffffffffff168152602001908152602001600020819055505b6064605a8261123c9190613138565b6112469190612f96565b90506000811161128b576040517f08c379a000000000000000000000000000000000000000000000000000000000815260040161128290612d8f565b60405180910390fd5b3373ffffffffffffffffffffffffffffffffffffffff166108fc829081150290604051600060405180830381858888f193505050501580156112d1573d6000803e3d6000fd5b505050565b601280546112e3906132b7565b80601f016020809104026020016040519081016040528092919081815260200182805461130f906132b7565b801561135c5780601f106113315761010080835404028352916020019161135c565b820191906000526020600020905b81548152906001019060200180831161133f57829003601f168201915b505050505081565b600b6020528060005260406000206000915090505481565b600d60019054906101000a900460ff1661139557600080fd5b6000600c60003373ffffffffffffffffffffffffffffffffffffffff1673ffffffffffffffffffffffffffffffffffffffff16815260200190815260200160002054600b60003373ffffffffffffffffffffffffffffffffffffffff1673ffffffffffffffffffffffffffffffffffffffff168152602001908152602001600020546114219190612f40565b90506000811161143057600080fd5b6000600b60003373ffffffffffffffffffffffffffffffffffffffff1673ffffffffffffffffffffffffffffffffffffffff168152602001908152602001600020819055506000600c60003373ffffffffffffffffffffffffffffffffffffffff1673ffffffffffffffffffffffffffffffffffffffff168152602001908152602001600020819055503373ffffffffffffffffffffffffffffffffffffffff166108fc829081150290604051600060405180830381858888f19350505050158015611500573d6000803e3d6000fd5b5050565b600c6020528060005260406000206000915090505481565b60105481565b662386f26fc1000034101561153657600080fd5b80156115b05734600b60003373ffffffffffffffffffffffffffffffffffffffff1673ffffffffffffffffffffffffffffffffffffffff168152602001908152602001600020600082825461158b9190612f40565b9250508190555034600e60008282546115a49190612f40565b92505081905550611620565b34600c60003373ffffffffffffffffffffffffffffffffffffffff1673ffffffffffffffffffffffffffffffffffffffff16815260200190815260200160002060008282546115ff9190612f40565b9250508190555034600f60008282546116189190612f40565b925050819055505b50565b600060118054611632906132b7565b80601f016020809104026020016040519081016040528092919081815260200182805461165e906132b7565b80156116ab5780601f10611680576101008083540402835291602001916116ab565b820191906000526020600020905b81548152906001019060200180831161168e57829003601f168201915b5050505050905060005b81518160ff16101561176a576000828260ff16815181106116ff577f4e487b7100000000000000000000000000000000000000000000000000000000600052603260045260246000fd5b602001015160f81c60f81b60f81c60ff16905060308110158015611724575060398111155b15611756576030816117369190613192565b600a6013546117459190613138565b61174f9190612f40565b6013819055505b50808061176290613363565b9150506116b5565b5050565b60006012805461177d906132b7565b80601f01602080910402602001604051908101604052809291908181526020018280546117a9906132b7565b80156117f65780601f106117cb576101008083540402835291602001916117f6565b820191906000526020600020905b8154815290600101906020018083116117d957829003601f168201915b5050505050905060005b81518160ff1610156118b5576000828260ff168151811061184a577f4e487b7100000000000000000000000000000000000000000000000000000000600052603260045260246000fd5b602001015160f81c60f81b60f81c60ff1690506030811015801561186f575060398111155b156118a1576030816118819190613192565b600a6014546118909190613138565b61189a9190612f40565b6014819055505b5080806118ad90613363565b915050611800565b5050565b60007f37646132373032663337666434386535623162396135373135653335303962369050600067016345785d8a0000905060006118ff833063334adea960e01b611bef565b9050600060405180608001604052806044815260200161370d604491399050600061192b600954611c20565b90506060826040516020016119409190612c0a565b60405160208183030381529060405290508082604051602001611964929190612bba565b60405160208183030381529060405290508092506119c26040518060400160405280600381526020017f67657400000000000000000000000000000000000000000000000000000000008152508486611dcd9092919063ffffffff16565b611a416040518060400160405280600481526020017f70617468000000000000000000000000000000000000000000000000000000008152506040518060400160405280601581526020017f6576656e74732c302c696e74486f6d6553636f7265000000000000000000000081525086611dcd9092919063ffffffff16565b611a4b8486611e00565b50505050505050565b60007f37646132373032663337666434386535623162396135373135653335303962369050600067016345785d8a000090506000611a9a833063386748fe60e01b611bef565b9050600060405180608001604052806044815260200161370d6044913990506000611ac6600954611c20565b9050606082604051602001611adb9190612c0a565b60405160208183030381529060405290508082604051602001611aff929190612bba565b6040516020818303038152906040529050809250611b5d6040518060400160405280600381526020017f67657400000000000000000000000000000000000000000000000000000000008152508486611dcd9092919063ffffffff16565b611bdc6040518060400160405280600481526020017f70617468000000000000000000000000000000000000000000000000000000008152506040518060400160405280601581526020017f6576656e74732c302c696e744177617953636f7265000000000000000000000081525086611dcd9092919063ffffffff16565b611be68486611e00565b50505050505050565b611bf76126f4565b611bff6126f4565b611c1685858584611e37909392919063ffffffff16565b9150509392505050565b60606000821415611c68576040518060400160405280600181526020017f30000000000000000000000000000000000000000000000000000000000000008152509050611dc8565b600082905060005b60008214611c9a578080611c839061331a565b915050600a82611c939190612f96565b9150611c70565b60008167ffffffffffffffff811115611cdc577f4e487b7100000000000000000000000000000000000000000000000000000000600052604160045260246000fd5b6040519080825280601f01601f191660200182016040528015611d0e5781602001600182028036833780820191505090505b5090505b60008514611dc157600182611d279190613192565b9150600a85611d3691906133bb565b6030611d429190612f40565b60f81b818381518110611d7e577f4e487b7100000000000000000000000000000000000000000000000000000000600052603260045260246000fd5b60200101907effffffffffffffffffffffffffffffffffffffffffffffffffffffffffffff1916908160001a905350600a85611dba9190612f96565b9450611d12565b8093505050505b919050565b611de4828460800151611ee790919063ffffffff16565b611dfb818460800151611ee790919063ffffffff16565b505050565b6000611e2f600360009054906101000a900473ffffffffffffffffffffffffffffffffffffffff168484611f0c565b905092915050565b611e3f6126f4565b611e4f8560800151610100611fd6565b508385600001818152505082856020019073ffffffffffffffffffffffffffffffffffffffff16908173ffffffffffffffffffffffffffffffffffffffff16815250508185604001907bffffffffffffffffffffffffffffffffffffffffffffffffffffffff191690817bffffffffffffffffffffffffffffffffffffffffffffffffffffffff191681525050849050949350505050565b611ef48260038351612040565b611f0781836121c590919063ffffffff16565b505050565b6000806004549050600181611f219190612f40565b6004819055506000633c6d41b960e01b600080876000015188604001518660028b6080015160000151604051602401611f609796959493929190612c3c565b604051602081830303815290604052907bffffffffffffffffffffffffffffffffffffffffffffffffffffffff19166020820180517bffffffffffffffffffffffffffffffffffffffffffffffffffffffff83818316178352505050509050611fcb868386846121e7565b925050509392505050565b611fde612761565b6000602083611fed91906133bb565b1461201957602082611fff91906133bb565b602061200b9190613192565b826120169190612f40565b91505b81836020018181525050604051808452600081528281016020016040525082905092915050565b60178167ffffffffffffffff1611612077576120718160058460ff16901b60ff16178461238b90919063ffffffff16565b506121c0565b60ff8167ffffffffffffffff16116120cd576120a6601860058460ff16901b178461238b90919063ffffffff16565b506120c78167ffffffffffffffff166001856123ab9092919063ffffffff16565b506121bf565b61ffff8167ffffffffffffffff1611612124576120fd601960058460ff16901b178461238b90919063ffffffff16565b5061211e8167ffffffffffffffff166002856123ab9092919063ffffffff16565b506121be565b63ffffffff8167ffffffffffffffff161161217d57612156601a60058460ff16901b178461238b90919063ffffffff16565b506121778167ffffffffffffffff166004856123ab9092919063ffffffff16565b506121bd565b61219a601b60058460ff16901b178461238b90919063ffffffff16565b506121bb8167ffffffffffffffff166008856123ab9092919063ffffffff16565b505b5b5b5b505050565b6121cd612761565b6121df838460000151518485516123cd565b905092915050565b600030846040516020016121fc929190612bde565b604051602081830303815290604052805190602001209050846005600083815260200190815260200160002060006101000a81548173ffffffffffffffffffffffffffffffffffffffff021916908373ffffffffffffffffffffffffffffffffffffffff160217905550807fb5e6e01e79f91267dc17b4e6314d5d4d03593d2ceee0fbb452b750bd70ea5af960405160405180910390a2600260009054906101000a900473ffffffffffffffffffffffffffffffffffffffff1673ffffffffffffffffffffffffffffffffffffffff16634000aea08685856040518463ffffffff1660e01b81526004016122f293929190612cb2565b602060405180830381600087803b15801561230c57600080fd5b505af1158015612320573d6000803e3d6000fd5b505050506040513d601f19601f8201168201806040525081019061234491906128bb565b612383576040517f08c379a000000000000000000000000000000000000000000000000000000000815260040161237a90612d6f565b60405180910390fd5b949350505050565b612393612761565b6123a383846000015151846124bc565b905092915050565b6123b3612761565b6123c4848560000151518585612513565b90509392505050565b6123d5612761565b82518211156123e357600080fd5b846020015182856123f49190612f40565b111561242957612428856002612419886020015188876124149190612f40565b6125a1565b6124239190613138565b6125bd565b5b6000808651805187602083010193508088870111156124485787860182525b60208701925050505b6020841061248f578051825260208261246a9190612f40565b91506020816124799190612f40565b90506020846124889190613192565b9350612451565b60006001856020036101000a03905080198251168184511681811785525050508692505050949350505050565b6124c4612761565b836020015183106124ea576124e984600286602001516124e49190613138565b6125bd565b5b8351805160208583010184815381861415612506576001820183525b5050508390509392505050565b61251b612761565b8460200151848361252c9190612f40565b11156125545761255385600286856125449190612f40565b61254e9190613138565b6125bd565b5b6000600183610100612566919061301a565b6125709190613192565b905085518386820101858319825116178152815185880111156125935784870182525b505085915050949350505050565b6000818311156125b3578290506125b7565b8190505b92915050565b6000826000015190506125d08383611fd6565b506125db83826121c5565b50505050565b8280546125ed906132b7565b90600052602060002090601f01602090048101928261260f5760008555612656565b82601f1061262857805160ff1916838001178555612656565b82800160010185558215612656579182015b8281111561265557825182559160200191906001019061263a565b5b509050612663919061277b565b5090565b828054612673906132b7565b90600052602060002090601f01602090048101928261269557600085556126e3565b82601f106126a657805485556126e3565b828001600101855582156126e357600052602060002091601f016020900482015b828111156126e25782548255916001019190600101906126c7565b5b5090506126f0919061277b565b5090565b6040518060a0016040528060008019168152602001600073ffffffffffffffffffffffffffffffffffffffff16815260200160007bffffffffffffffffffffffffffffffffffffffffffffffffffffffff191681526020016000815260200161275b612761565b81525090565b604051806040016040528060608152602001600081525090565b5b8082111561279457600081600090555060010161277c565b5090565b60006127ab6127a684612ec1565b612e9c565b9050828152602081018484840111156127c357600080fd5b6127ce848285613275565b509392505050565b6000813590506127e5816136b0565b92915050565b6000813590506127fa816136c7565b92915050565b60008151905061280f816136c7565b92915050565b600081359050612824816136de565b92915050565b600082601f83011261283b57600080fd5b813561284b848260208601612798565b91505092915050565b600081519050612863816136f5565b92915050565b60006020828403121561287b57600080fd5b6000612889848285016127d6565b91505092915050565b6000602082840312156128a457600080fd5b60006128b2848285016127eb565b91505092915050565b6000602082840312156128cd57600080fd5b60006128db84828501612800565b91505092915050565b600080604083850312156128f757600080fd5b600061290585828601612815565b925050602083013567ffffffffffffffff81111561292257600080fd5b61292e8582860161282a565b9150509250929050565b60006020828403121561294a57600080fd5b600061295884828501612854565b91505092915050565b61296a816131c6565b82525050565b612979816131d8565b82525050565b612988816131e4565b82525050565b612997816131ee565b82525050565b60006129a882612ef2565b6129b28185612f08565b93506129c2818560208601613284565b6129cb816134a8565b840191505092915050565b60006129e182612ef2565b6129eb8185612f19565b93506129fb818560208601613284565b80840191505092915050565b612a18612a1382613251565b61338d565b82525050565b6000612a2982612efd565b612a338185612f24565b9350612a43818560208601613284565b612a4c816134a8565b840191505092915050565b6000612a6282612efd565b612a6c8185612f35565b9350612a7c818560208601613284565b80840191505092915050565b6000612a95601b83612f24565b9150612aa0826134d3565b602082019050919050565b6000612ab8602383612f24565b9150612ac3826134fc565b604082019050919050565b6000612adb601283612f24565b9150612ae68261354b565b602082019050919050565b6000612afe601883612f24565b9150612b0982613574565b602082019050919050565b6000612b21602883612f24565b9150612b2c8261359d565b604082019050919050565b6000612b44605383612f24565b9150612b4f826135ec565b606082019050919050565b6000612b67603583612f24565b9150612b7282613661565b604082019050919050565b612b868161323a565b82525050565b612b9d612b988261323a565b6133b1565b82525050565b6000612baf82846129d6565b915081905092915050565b6000612bc682856129d6565b9150612bd28284612a57565b91508190509392505050565b6000612bea8285612a07565b601482019150612bfa8284612b8c565b6020820191508190509392505050565b6000612c168284612a57565b915081905092915050565b6000602082019050612c366000830184612961565b92915050565b600060e082019050612c51600083018a612961565b612c5e6020830189612b7d565b612c6b604083018861297f565b612c78606083018761298e565b612c856080830186612b7d565b612c9260a0830185612b7d565b81810360c0830152612ca4818461299d565b905098975050505050505050565b6000606082019050612cc76000830186612961565b612cd46020830185612b7d565b8181036040830152612ce6818461299d565b9050949350505050565b6000602082019050612d056000830184612970565b92915050565b60006020820190508181036000830152612d25818461299d565b905092915050565b60006020820190508181036000830152612d478184612a1e565b905092915050565b60006020820190508181036000830152612d6881612a88565b9050919050565b60006020820190508181036000830152612d8881612aab565b9050919050565b60006020820190508181036000830152612da881612ace565b9050919050565b60006020820190508181036000830152612dc881612af1565b9050919050565b60006020820190508181036000830152612de881612b14565b9050919050565b60006020820190508181036000830152612e0881612b37565b9050919050565b60006020820190508181036000830152612e2881612b5a565b9050919050565b6000602082019050612e446000830184612b7d565b92915050565b6000604082019050612e5f6000830185612b7d565b612e6c6020830184612970565b9392505050565b6000604082019050612e886000830185612b7d565b612e956020830184612b7d565b9392505050565b6000612ea6612eb7565b9050612eb282826132e9565b919050565b6000604051905090565b600067ffffffffffffffff821115612edc57612edb613479565b5b612ee5826134a8565b9050602081019050919050565b600081519050919050565b600081519050919050565b600082825260208201905092915050565b600081905092915050565b600082825260208201905092915050565b600081905092915050565b6000612f4b8261323a565b9150612f568361323a565b9250827fffffffffffffffffffffffffffffffffffffffffffffffffffffffffffffffff03821115612f8b57612f8a6133ec565b5b828201905092915050565b6000612fa18261323a565b9150612fac8361323a565b925082612fbc57612fbb61341b565b5b828204905092915050565b6000808291508390505b600185111561301157808604811115612fed57612fec6133ec565b5b6001851615612ffc5780820291505b808102905061300a856134c6565b9450612fd1565b94509492505050565b60006130258261323a565b91506130308361323a565b925061305d7fffffffffffffffffffffffffffffffffffffffffffffffffffffffffffffffff8484613065565b905092915050565b6000826130755760019050613131565b816130835760009050613131565b816001811461309957600281146130a3576130d2565b6001915050613131565b60ff8411156130b5576130b46133ec565b5b8360020a9150848211156130cc576130cb6133ec565b5b50613131565b5060208310610133831016604e8410600b84101617156131075782820a905083811115613102576131016133ec565b5b613131565b6131148484846001612fc7565b9250905081840481111561312b5761312a6133ec565b5b81810290505b9392505050565b60006131438261323a565b915061314e8361323a565b9250817fffffffffffffffffffffffffffffffffffffffffffffffffffffffffffffffff0483118215151615613187576131866133ec565b5b828202905092915050565b600061319d8261323a565b91506131a88361323a565b9250828210156131bb576131ba6133ec565b5b828203905092915050565b60006131d18261321a565b9050919050565b60008115159050919050565b6000819050919050565b60007fffffffff0000000000000000000000000000000000000000000000000000000082169050919050565b600073ffffffffffffffffffffffffffffffffffffffff82169050919050565b6000819050919050565b600060ff82169050919050565b600061325c82613263565b9050919050565b600061326e8261321a565b9050919050565b82818337600083830152505050565b60005b838110156132a2578082015181840152602081019050613287565b838111156132b1576000848401525b50505050565b600060028204905060018216806132cf57607f821691505b602082108114156132e3576132e261344a565b5b50919050565b6132f2826134a8565b810181811067ffffffffffffffff8211171561331157613310613479565b5b80604052505050565b60006133258261323a565b91507fffffffffffffffffffffffffffffffffffffffffffffffffffffffffffffffff821415613358576133576133ec565b5b600182019050919050565b600061336e82613244565b915060ff821415613382576133816133ec565b5b600182019050919050565b60006133988261339f565b9050919050565b60006133aa826134b9565b9050919050565b6000819050919050565b60006133c68261323a565b91506133d18361323a565b9250826133e1576133e061341b565b5b828206905092915050565b7f4e487b7100000000000000000000000000000000000000000000000000000000600052601160045260246000fd5b7f4e487b7100000000000000000000000000000000000000000000000000000000600052601260045260246000fd5b7f4e487b7100000000000000000000000000000000000000000000000000000000600052602260045260246000fd5b7f4e487b7100000000000000000000000000000000000000000000000000000000600052604160045260246000fd5b6000601f19601f8301169050919050565b60008160601b9050919050565b60008160011c9050919050565b7f746f53656e6420636f6d6573206f757420746f206265203c3d20300000000000600082015250565b7f756e61626c6520746f207472616e73666572416e6443616c6c20746f206f726160008201527f636c650000000000000000000000000000000000000000000000000000000000602082015250565b7f746f53656e64206d757374206265203e20300000000000000000000000000000600082015250565b7f74686520666978696e67207761732063616e63656c6c65640000000000000000600082015250565b7f536f75726365206d75737420626520746865206f7261636c65206f662074686560008201527f2072657175657374000000000000000000000000000000000000000000000000602082015250565b7f64656369646557696e6e65722063616e2062652063616c6c6564206f6e6c792060008201527f3120626c6f636b20616674657220636865636b526573756c742e20547279206160208201527f6761696e20696e20666577207365636f6e647300000000000000000000000000604082015250565b7f746865206d61746368206e6565647320746f2062652066696e6973686564206260008201527f65666f726520636c61696d696e67207072697a65730000000000000000000000602082015250565b6136b9816131c6565b81146136c457600080fd5b50565b6136d0816131d8565b81146136db57600080fd5b50565b6136e7816131e4565b81146136f257600080fd5b50565b6136fe8161323a565b811461370957600080fd5b5056fe68747470733a2f2f7777772e74686573706f72747364622e636f6d2f6170692f76312f6a736f6e2f35303133303136322f6c6f6f6b75706576656e742e7068703f69643da26469706673582212203cc66b31b6501acaba91536b8e487bfe5c5abd61a6f7a68c214e69700108603d64736f6c63430008040033a264697066735822122039f2b0047e275b409d6b176a598d3896ac90084bf9be50106e45f95f08b4a32e64736f6c63430008040033",
  "linkReferences": {},
  "deployedLinkReferences": {}
}