{
  "_format": "hh-sol-artifact-1",
  "contractName": "Fixture",
  "sourceName": "contracts/Fixture.sol",
  "abi": [
    {
      "inputs": [
        {
          "internalType": "uint256",
          "name": "_leagueId",
          "type": "uint256"
        },
        {
          "internalType": "uint256",
          "name": "_eventId",
          "type": "uint256"
        },
        {
          "internalType": "uint256",
          "name": "_time",
          "type": "uint256"
        }
      ],
      "stateMutability": "nonpayable",
      "type": "constructor"
    },
    {
      "anonymous": false,
      "inputs": [
        {
          "indexed": true,
          "internalType": "bytes32",
          "name": "id",
          "type": "bytes32"
        }
      ],
      "name": "ChainlinkCancelled",
      "type": "event"
    },
    {
      "anonymous": false,
      "inputs": [
        {
          "indexed": true,
          "internalType": "bytes32",
          "name": "id",
          "type": "bytes32"
        }
      ],
      "name": "ChainlinkFulfilled",
      "type": "event"
    },
    {
      "anonymous": false,
      "inputs": [
        {
          "indexed": true,
          "internalType": "bytes32",
          "name": "id",
          "type": "bytes32"
        }
      ],
      "name": "ChainlinkRequested",
      "type": "event"
    },
    {
      "anonymous": false,
      "inputs": [
        {
          "indexed": false,
          "internalType": "uint256",
          "name": "a",
          "type": "uint256"
        },
        {
          "indexed": false,
          "internalType": "uint256",
          "name": "b",
          "type": "uint256"
        }
      ],
      "name": "ReceivedResult",
      "type": "event"
    },
    {
      "anonymous": false,
      "inputs": [
        {
          "indexed": true,
          "internalType": "bytes32",
          "name": "requestId",
          "type": "bytes32"
        },
        {
          "indexed": true,
          "internalType": "bytes",
          "name": "data",
          "type": "bytes"
        }
      ],
      "name": "RequestFulfilled",
      "type": "event"
    },
    {
      "inputs": [
        {
          "internalType": "bool",
          "name": "_isHomeBet",
          "type": "bool"
        }
      ],
      "name": "addBet",
      "outputs": [],
      "stateMutability": "payable",
      "type": "function"
    },
    {
      "inputs": [
        {
          "internalType": "address",
          "name": "",
          "type": "address"
        }
      ],
      "name": "awayBets",
      "outputs": [
        {
          "internalType": "uint256",
          "name": "",
          "type": "uint256"
        }
      ],
      "stateMutability": "view",
      "type": "function"
    },
    {
      "inputs": [],
      "name": "awayScore",
      "outputs": [
        {
          "internalType": "string",
          "name": "",
          "type": "string"
        }
      ],
      "stateMutability": "view",
      "type": "function"
    },
    {
      "inputs": [],
      "name": "awayScoreInt",
      "outputs": [
        {
          "internalType": "uint256",
          "name": "",
          "type": "uint256"
        }
      ],
      "stateMutability": "view",
      "type": "function"
    },
    {
      "inputs": [],
      "name": "awaySum",
      "outputs": [
        {
          "internalType": "uint256",
          "name": "",
          "type": "uint256"
        }
      ],
      "stateMutability": "view",
      "type": "function"
    },
    {
      "inputs": [
        {
          "internalType": "address",
          "name": "_addr",
          "type": "address"
        }
      ],
      "name": "calculateWinnings",
      "outputs": [
        {
          "internalType": "uint256",
          "name": "",
          "type": "uint256"
        }
      ],
      "stateMutability": "view",
      "type": "function"
    },
    {
      "inputs": [],
      "name": "cancelMatch",
      "outputs": [],
      "stateMutability": "nonpayable",
      "type": "function"
    },
    {
      "inputs": [],
      "name": "checkResult",
      "outputs": [],
      "stateMutability": "nonpayable",
      "type": "function"
    },
    {
      "inputs": [],
      "name": "data",
      "outputs": [
        {
          "internalType": "bytes",
          "name": "",
          "type": "bytes"
        }
      ],
      "stateMutability": "view",
      "type": "function"
    },
    {
      "inputs": [],
      "name": "decideWinner",
      "outputs": [],
      "stateMutability": "nonpayable",
      "type": "function"
    },
    {
      "inputs": [
        {
          "internalType": "bool",
          "name": "_isHomeBet",
          "type": "bool"
        }
      ],
      "name": "earlyWithdrawBet",
      "outputs": [],
      "stateMutability": "nonpayable",
      "type": "function"
    },
    {
      "inputs": [],
      "name": "eventId",
      "outputs": [
        {
          "internalType": "uint256",
          "name": "",
          "type": "uint256"
        }
      ],
      "stateMutability": "view",
      "type": "function"
    },
    {
      "inputs": [
        {
          "internalType": "bytes32",
          "name": "requestId",
          "type": "bytes32"
        },
        {
          "internalType": "bytes",
          "name": "bytesData",
          "type": "bytes"
        }
      ],
      "name": "getAwayScore",
      "outputs": [],
      "stateMutability": "nonpayable",
      "type": "function"
    },
    {
      "inputs": [
        {
          "internalType": "bytes32",
          "name": "requestId",
          "type": "bytes32"
        },
        {
          "internalType": "bytes",
          "name": "bytesData",
          "type": "bytes"
        }
      ],
      "name": "getHomeScore",
      "outputs": [],
      "stateMutability": "nonpayable",
      "type": "function"
    },
    {
      "inputs": [],
      "name": "getLINKBalance",
      "outputs": [
        {
          "internalType": "uint256",
          "name": "",
          "type": "uint256"
        },
        {
          "internalType": "bool",
          "name": "",
          "type": "bool"
        }
      ],
      "stateMutability": "view",
      "type": "function"
    },
    {
      "inputs": [],
      "name": "getWinnings",
      "outputs": [],
      "stateMutability": "nonpayable",
      "type": "function"
    },
    {
      "inputs": [
        {
          "internalType": "address",
          "name": "",
          "type": "address"
        }
      ],
      "name": "homeBets",
      "outputs": [
        {
          "internalType": "uint256",
          "name": "",
          "type": "uint256"
        }
      ],
      "stateMutability": "view",
      "type": "function"
    },
    {
      "inputs": [],
      "name": "homeScore",
      "outputs": [
        {
          "internalType": "string",
          "name": "",
          "type": "string"
        }
      ],
      "stateMutability": "view",
      "type": "function"
    },
    {
      "inputs": [],
      "name": "homeScoreInt",
      "outputs": [
        {
          "internalType": "uint256",
          "name": "",
          "type": "uint256"
        }
      ],
      "stateMutability": "view",
      "type": "function"
    },
    {
      "inputs": [],
      "name": "homeSum",
      "outputs": [
        {
          "internalType": "uint256",
          "name": "",
          "type": "uint256"
        }
      ],
      "stateMutability": "view",
      "type": "function"
    },
    {
      "inputs": [],
      "name": "isCancelled",
      "outputs": [
        {
          "internalType": "bool",
          "name": "",
          "type": "bool"
        }
      ],
      "stateMutability": "view",
      "type": "function"
    },
    {
      "inputs": [],
      "name": "isFinished",
      "outputs": [
        {
          "internalType": "bool",
          "name": "",
          "type": "bool"
        }
      ],
      "stateMutability": "view",
      "type": "function"
    },
    {
      "inputs": [],
      "name": "leagueId",
      "outputs": [
        {
          "internalType": "uint256",
          "name": "",
          "type": "uint256"
        }
      ],
      "stateMutability": "view",
      "type": "function"
    },
    {
      "inputs": [],
      "name": "returnLinkTokens",
      "outputs": [],
      "stateMutability": "nonpayable",
      "type": "function"
    },
    {
      "inputs": [],
      "name": "stringTemp",
      "outputs": [
        {
          "internalType": "string",
          "name": "",
          "type": "string"
        }
      ],
      "stateMutability": "view",
      "type": "function"
    },
    {
      "inputs": [],
      "name": "time",
      "outputs": [
        {
          "internalType": "uint256",
          "name": "",
          "type": "uint256"
        }
      ],
      "stateMutability": "view",
      "type": "function"
    },
    {
      "inputs": [],
      "name": "winner",
      "outputs": [
        {
          "internalType": "uint256",
          "name": "",
          "type": "uint256"
        }
      ],
      "stateMutability": "view",
      "type": "function"
    },
    {
      "inputs": [],
      "name": "withdrawIfCancelled",
      "outputs": [],
      "stateMutability": "nonpayable",
      "type": "function"
    }
  ],
  "bytecode": "0x608060405260016004556001600d60006101000a81548160ff0219169083151502179055506000600d60016101000a81548160ff0219169083151502179055506001600e556001600f55655af3107a3fff6016553480156200006057600080fd5b5060405162003c7438038062003c748339818101604052810190620000869190620001ce565b33600760006101000a81548173ffffffffffffffffffffffffffffffffffffffff021916908373ffffffffffffffffffffffffffffffffffffffff160217905550826008819055508160098190555080600a819055506200010173a36085f69e2889c224210f603d836748e7dc00886200012f60201b60201c565b620001267374ecc8bdeb76f2c6760ed2dc8a46ca5e581fa6566200017360201b60201c565b50505062000248565b80600260006101000a81548173ffffffffffffffffffffffffffffffffffffffff021916908373ffffffffffffffffffffffffffffffffffffffff16021790555050565b80600360006101000a81548173ffffffffffffffffffffffffffffffffffffffff021916908373ffffffffffffffffffffffffffffffffffffffff16021790555050565b600081519050620001c8816200022e565b92915050565b600080600060608486031215620001e457600080fd5b6000620001f486828701620001b7565b93505060206200020786828701620001b7565b92505060406200021a86828701620001b7565b9150509250925092565b6000819050919050565b620002398162000224565b81146200024557600080fd5b50565b613a1c80620002586000396000f3fe6080604052600436106101b75760003560e01c80637b352962116100ec578063c3b758e71161008a578063d972e89c11610064578063d972e89c1461057f578063dc3db59914610596578063dfbf53ae146105d3578063e7a6ee88146105fe576101b7565b8063c3b758e7146104ee578063d38d963914610517578063d4ccf54514610542576101b7565b80639b5c7d27116100c65780639b5c7d2714610469578063a21d942f14610480578063ac428e7a14610497578063b6a1f7a2146104c3576101b7565b80637b352962146103e85780638bf263891461041357806395ee12211461043e576101b7565b8063386748fe116101595780636adf56c7116101335780636adf56c7146103645780636db5fc9c1461037b57806370b7596b146103a657806373d4a13a146103bd576101b7565b8063386748fe146102d35780633f0c8d2b146102fc578063464800af14610339576101b7565b806316ada5471161019557806316ada5471461023d5780631a8972041461026857806325402e7414610293578063334adea9146102aa576101b7565b8063089cdd0c146101bc5780630a95cd80146101e7578063141248b914610212575b600080fd5b3480156101c857600080fd5b506101d161061a565b6040516101de91906130c5565b60405180910390f35b3480156101f357600080fd5b506101fc610620565b6040516102099190612fc3565b60405180910390f35b34801561021e57600080fd5b506102276106ae565b60405161023491906130c5565b60405180910390f35b34801561024957600080fd5b506102526106b4565b60405161025f91906130c5565b60405180910390f35b34801561027457600080fd5b5061027d6106ba565b60405161028a91906130c5565b60405180910390f35b34801561029f57600080fd5b506102a86106c0565b005b3480156102b657600080fd5b506102d160048036038101906102cc9190612b7a565b6107e1565b005b3480156102df57600080fd5b506102fa60048036038101906102f59190612b7a565b610961565b005b34801561030857600080fd5b50610323600480360381019061031e9190612aff565b610ae1565b60405161033091906130c5565b60405180910390f35b34801561034557600080fd5b5061034e610d1f565b60405161035b91906130c5565b60405180910390f35b34801561037057600080fd5b50610379610d25565b005b34801561038757600080fd5b50610390610d27565b60405161039d9190612fc3565b60405180910390f35b3480156103b257600080fd5b506103bb610db5565b005b3480156103c957600080fd5b506103d2611189565b6040516103df9190612fa1565b60405180910390f35b3480156103f457600080fd5b506103fd611217565b60405161040a9190612f86565b60405180910390f35b34801561041f57600080fd5b5061042861122a565b60405161043591906130c5565b60405180910390f35b34801561044a57600080fd5b50610453611230565b6040516104609190612f86565b60405180910390f35b34801561047557600080fd5b5061047e611243565b005b34801561048c57600080fd5b506104956112ba565b005b3480156104a357600080fd5b506104ac6112d3565b6040516104ba9291906130e0565b60405180910390f35b3480156104cf57600080fd5b506104d86113a1565b6040516104e591906130c5565b60405180910390f35b3480156104fa57600080fd5b5061051560048036038101906105109190612b28565b6113a7565b005b34801561052357600080fd5b5061052c61156c565b6040516105399190612fc3565b60405180910390f35b34801561054e57600080fd5b5061056960048036038101906105649190612aff565b6115fa565b60405161057691906130c5565b60405180910390f35b34801561058b57600080fd5b50610594611612565b005b3480156105a257600080fd5b506105bd60048036038101906105b89190612aff565b61179a565b6040516105ca91906130c5565b60405180910390f35b3480156105df57600080fd5b506105e86117b2565b6040516105f591906130c5565b60405180910390f35b61061860048036038101906106139190612b28565b6117b8565b005b60095481565b6015805461062d9061354d565b80601f01602080910402602001604051908101604052809291908181526020018280546106599061354d565b80156106a65780601f1061067b576101008083540402835291602001916106a6565b820191906000526020600020905b81548152906001019060200180831161068957829003601f168201915b505050505081565b60135481565b600a5481565b600f5481565b60016016546106cf91906131d6565b4311610710576040517f08c379a000000000000000000000000000000000000000000000000000000000815260040161070790613085565b60405180910390fd5b6107186118b9565b610720611a04565b601454601354111561073957600160108190555061075c565b601454601354141561075257600260108190555061075b565b60036010819055505b5b600a54421115610786576001600d60006101000a81548160ff0219169083151502179055506107a2565b6001600d60006101000a81548160ff0219169083151502179055505b7fd9010b1425bd2a0c19f6b8a53728719ed04087563fc41a0c5c531f31250d20296013546014546040516107d7929190613109565b60405180910390a1565b816005600082815260200190815260200160002060009054906101000a900473ffffffffffffffffffffffffffffffffffffffff1673ffffffffffffffffffffffffffffffffffffffff163373ffffffffffffffffffffffffffffffffffffffff1614610883576040517f08c379a000000000000000000000000000000000000000000000000000000000815260040161087a90613065565b60405180910390fd5b6005600082815260200190815260200160002060006101000a81549073ffffffffffffffffffffffffffffffffffffffff0219169055807f7cc135e0cebb02c3480ae5d74d377283180a2601f8f644edf7987b009316c63a60405160405180910390a2816040516108f49190612e39565b6040518091039020837f1a111c5dcf9a71088bd5e1797fdfaf399fec2afbb24aca247e4e3e9f4b61df9160405160405180910390a3816006908051906020019061093f929190612877565b50600660119080546109509061354d565b61095b9291906128fd565b50505050565b816005600082815260200190815260200160002060009054906101000a900473ffffffffffffffffffffffffffffffffffffffff1673ffffffffffffffffffffffffffffffffffffffff163373ffffffffffffffffffffffffffffffffffffffff1614610a03576040517f08c379a00000000000000000000000000000000000000000000000000000000081526004016109fa90613065565b60405180910390fd5b6005600082815260200190815260200160002060006101000a81549073ffffffffffffffffffffffffffffffffffffffff0219169055807f7cc135e0cebb02c3480ae5d74d377283180a2601f8f644edf7987b009316c63a60405160405180910390a281604051610a749190612e39565b6040518091039020837f1a111c5dcf9a71088bd5e1797fdfaf399fec2afbb24aca247e4e3e9f4b61df9160405160405180910390a38160069080519060200190610abf929190612877565b5060066012908054610ad09061354d565b610adb9291906128fd565b50505050565b6000600d60019054906101000a900460ff1615610b33576040517f08c379a0000000000000000000000000000000000000000000000000000000008152600401610b2a90613045565b60405180910390fd5b600d60009054906101000a900460ff16610b82576040517f08c379a0000000000000000000000000000000000000000000000000000000008152600401610b79906130a5565b60405180910390fd5b600060016010541415610c0057600f54600e54610b9f91906131d6565b600b60008573ffffffffffffffffffffffffffffffffffffffff1673ffffffffffffffffffffffffffffffffffffffff16815260200190815260200160002054610be991906133ce565b9050600e5481610bf9919061322c565b9050610d16565b60026010541415610c9c57600c60008473ffffffffffffffffffffffffffffffffffffffff1673ffffffffffffffffffffffffffffffffffffffff16815260200190815260200160002054600b60008573ffffffffffffffffffffffffffffffffffffffff1673ffffffffffffffffffffffffffffffffffffffff16815260200190815260200160002054610c9591906131d6565b9050610d15565b60036010541415610d1457600f54600e54610cb791906131d6565b600c60008573ffffffffffffffffffffffffffffffffffffffff1673ffffffffffffffffffffffffffffffffffffffff16815260200190815260200160002054610d0191906133ce565b9050600f5481610d11919061322c565b90505b5b5b80915050919050565b60085481565b565b60118054610d349061354d565b80601f0160208091040260200160405190810160405280929190818152602001828054610d609061354d565b8015610dad5780601f10610d8257610100808354040283529160200191610dad565b820191906000526020600020905b815481529060010190602001808311610d9057829003601f168201915b505050505081565b600d60019054906101000a900460ff1615610e05576040517f08c379a0000000000000000000000000000000000000000000000000000000008152600401610dfc90613045565b60405180910390fd5b600d60009054906101000a900460ff16610e54576040517f08c379a0000000000000000000000000000000000000000000000000000000008152600401610e4b906130a5565b60405180910390fd5b600060016010541415610f1757600f54600e54610e7191906131d6565b600b60003373ffffffffffffffffffffffffffffffffffffffff1673ffffffffffffffffffffffffffffffffffffffff16815260200190815260200160002054610ebb91906133ce565b9050600e5481610ecb919061322c565b90506000600b60003373ffffffffffffffffffffffffffffffffffffffff1673ffffffffffffffffffffffffffffffffffffffff168152602001908152602001600020819055506110fc565b6002601054141561103d57600c60003373ffffffffffffffffffffffffffffffffffffffff1673ffffffffffffffffffffffffffffffffffffffff16815260200190815260200160002054600b60003373ffffffffffffffffffffffffffffffffffffffff1673ffffffffffffffffffffffffffffffffffffffff16815260200190815260200160002054610fac91906131d6565b90506000600b60003373ffffffffffffffffffffffffffffffffffffffff1673ffffffffffffffffffffffffffffffffffffffff168152602001908152602001600020819055506000600c60003373ffffffffffffffffffffffffffffffffffffffff1673ffffffffffffffffffffffffffffffffffffffff168152602001908152602001600020819055506110fb565b600360105414156110fa57600f54600e5461105891906131d6565b600c60003373ffffffffffffffffffffffffffffffffffffffff1673ffffffffffffffffffffffffffffffffffffffff168152602001908152602001600020546110a291906133ce565b9050600f54816110b2919061322c565b90506000600c60003373ffffffffffffffffffffffffffffffffffffffff1673ffffffffffffffffffffffffffffffffffffffff168152602001908152602001600020819055505b5b5b6000811161113f576040517f08c379a000000000000000000000000000000000000000000000000000000000815260040161113690612fe5565b60405180910390fd5b3373ffffffffffffffffffffffffffffffffffffffff166108fc829081150290604051600060405180830381858888f19350505050158015611185573d6000803e3d6000fd5b5050565b600680546111969061354d565b80601f01602080910402602001604051908101604052809291908181526020018280546111c29061354d565b801561120f5780601f106111e45761010080835404028352916020019161120f565b820191906000526020600020905b8154815290600101906020018083116111f257829003601f168201915b505050505081565b600d60009054906101000a900460ff1681565b600e5481565b600d60019054906101000a900460ff1681565b600760009054906101000a900473ffffffffffffffffffffffffffffffffffffffff1673ffffffffffffffffffffffffffffffffffffffff163373ffffffffffffffffffffffffffffffffffffffff161461129d57600080fd5b6001600d60016101000a81548160ff021916908315150217905550565b6112c2611b4f565b6112ca611cea565b43601681905550565b600080600073a36085f69e2889c224210f603d836748e7dc008873ffffffffffffffffffffffffffffffffffffffff166370a08231306040518263ffffffff1660e01b81526004016113259190612eb7565b60206040518083038186803b15801561133d57600080fd5b505afa158015611351573d6000803e3d6000fd5b505050506040513d601f19601f820116820180604052508101906113759190612bce565b90506702c68af0bb14000081111561139457806001925092505061139d565b80600092509250505b9091565b60145481565b6000811561143b57600b60003373ffffffffffffffffffffffffffffffffffffffff1673ffffffffffffffffffffffffffffffffffffffff1681526020019081526020016000205490506000600b60003373ffffffffffffffffffffffffffffffffffffffff1673ffffffffffffffffffffffffffffffffffffffff168152602001908152602001600020819055506114c3565b600c60003373ffffffffffffffffffffffffffffffffffffffff1673ffffffffffffffffffffffffffffffffffffffff1681526020019081526020016000205490506000600c60003373ffffffffffffffffffffffffffffffffffffffff1673ffffffffffffffffffffffffffffffffffffffff168152602001908152602001600020819055505b6064605a826114d291906133ce565b6114dc919061322c565b905060008111611521576040517f08c379a000000000000000000000000000000000000000000000000000000000815260040161151890613025565b60405180910390fd5b3373ffffffffffffffffffffffffffffffffffffffff166108fc829081150290604051600060405180830381858888f19350505050158015611567573d6000803e3d6000fd5b505050565b601280546115799061354d565b80601f01602080910402602001604051908101604052809291908181526020018280546115a59061354d565b80156115f25780601f106115c7576101008083540402835291602001916115f2565b820191906000526020600020905b8154815290600101906020018083116115d557829003601f168201915b505050505081565b600b6020528060005260406000206000915090505481565b600d60019054906101000a900460ff1661162b57600080fd5b6000600c60003373ffffffffffffffffffffffffffffffffffffffff1673ffffffffffffffffffffffffffffffffffffffff16815260200190815260200160002054600b60003373ffffffffffffffffffffffffffffffffffffffff1673ffffffffffffffffffffffffffffffffffffffff168152602001908152602001600020546116b791906131d6565b9050600081116116c657600080fd5b6000600b60003373ffffffffffffffffffffffffffffffffffffffff1673ffffffffffffffffffffffffffffffffffffffff168152602001908152602001600020819055506000600c60003373ffffffffffffffffffffffffffffffffffffffff1673ffffffffffffffffffffffffffffffffffffffff168152602001908152602001600020819055503373ffffffffffffffffffffffffffffffffffffffff166108fc829081150290604051600060405180830381858888f19350505050158015611796573d6000803e3d6000fd5b5050565b600c6020528060005260406000206000915090505481565b60105481565b662386f26fc100003410156117cc57600080fd5b80156118465734600b60003373ffffffffffffffffffffffffffffffffffffffff1673ffffffffffffffffffffffffffffffffffffffff168152602001908152602001600020600082825461182191906131d6565b9250508190555034600e600082825461183a91906131d6565b925050819055506118b6565b34600c60003373ffffffffffffffffffffffffffffffffffffffff1673ffffffffffffffffffffffffffffffffffffffff168152602001908152602001600020600082825461189591906131d6565b9250508190555034600f60008282546118ae91906131d6565b925050819055505b50565b6000601180546118c89061354d565b80601f01602080910402602001604051908101604052809291908181526020018280546118f49061354d565b80156119415780601f1061191657610100808354040283529160200191611941565b820191906000526020600020905b81548152906001019060200180831161192457829003601f168201915b5050505050905060005b81518160ff161015611a00576000828260ff1681518110611995577f4e487b7100000000000000000000000000000000000000000000000000000000600052603260045260246000fd5b602001015160f81c60f81b60f81c60ff169050603081101580156119ba575060398111155b156119ec576030816119cc9190613428565b600a6013546119db91906133ce565b6119e591906131d6565b6013819055505b5080806119f8906135f9565b91505061194b565b5050565b600060128054611a139061354d565b80601f0160208091040260200160405190810160405280929190818152602001828054611a3f9061354d565b8015611a8c5780601f10611a6157610100808354040283529160200191611a8c565b820191906000526020600020905b815481529060010190602001808311611a6f57829003601f168201915b5050505050905060005b81518160ff161015611b4b576000828260ff1681518110611ae0577f4e487b7100000000000000000000000000000000000000000000000000000000600052603260045260246000fd5b602001015160f81c60f81b60f81c60ff16905060308110158015611b05575060398111155b15611b3757603081611b179190613428565b600a601454611b2691906133ce565b611b3091906131d6565b6014819055505b508080611b43906135f9565b915050611a96565b5050565b60007f37646132373032663337666434386535623162396135373135653335303962369050600067016345785d8a000090506000611b95833063334adea960e01b611e85565b905060006040518060800160405280604481526020016139a36044913990506000611bc1600954611eb6565b9050606082604051602001611bd69190612ea0565b60405160208183030381529060405290508082604051602001611bfa929190612e50565b6040516020818303038152906040529050809250611c586040518060400160405280600381526020017f676574000000000000000000000000000000000000000000000000000000000081525084866120639092919063ffffffff16565b611cd76040518060400160405280600481526020017f70617468000000000000000000000000000000000000000000000000000000008152506040518060400160405280601581526020017f6576656e74732c302c696e74486f6d6553636f72650000000000000000000000815250866120639092919063ffffffff16565b611ce18486612096565b50505050505050565b60007f37646132373032663337666434386535623162396135373135653335303962369050600067016345785d8a000090506000611d30833063386748fe60e01b611e85565b905060006040518060800160405280604481526020016139a36044913990506000611d5c600954611eb6565b9050606082604051602001611d719190612ea0565b60405160208183030381529060405290508082604051602001611d95929190612e50565b6040516020818303038152906040529050809250611df36040518060400160405280600381526020017f676574000000000000000000000000000000000000000000000000000000000081525084866120639092919063ffffffff16565b611e726040518060400160405280600481526020017f70617468000000000000000000000000000000000000000000000000000000008152506040518060400160405280601581526020017f6576656e74732c302c696e744177617953636f72650000000000000000000000815250866120639092919063ffffffff16565b611e7c8486612096565b50505050505050565b611e8d61298a565b611e9561298a565b611eac858585846120cd909392919063ffffffff16565b9150509392505050565b60606000821415611efe576040518060400160405280600181526020017f3000000000000000000000000000000000000000000000000000000000000000815250905061205e565b600082905060005b60008214611f30578080611f19906135b0565b915050600a82611f29919061322c565b9150611f06565b60008167ffffffffffffffff811115611f72577f4e487b7100000000000000000000000000000000000000000000000000000000600052604160045260246000fd5b6040519080825280601f01601f191660200182016040528015611fa45781602001600182028036833780820191505090505b5090505b6000851461205757600182611fbd9190613428565b9150600a85611fcc9190613651565b6030611fd891906131d6565b60f81b818381518110612014577f4e487b7100000000000000000000000000000000000000000000000000000000600052603260045260246000fd5b60200101907effffffffffffffffffffffffffffffffffffffffffffffffffffffffffffff1916908160001a905350600a85612050919061322c565b9450611fa8565b8093505050505b919050565b61207a82846080015161217d90919063ffffffff16565b61209181846080015161217d90919063ffffffff16565b505050565b60006120c5600360009054906101000a900473ffffffffffffffffffffffffffffffffffffffff1684846121a2565b905092915050565b6120d561298a565b6120e5856080015161010061226c565b508385600001818152505082856020019073ffffffffffffffffffffffffffffffffffffffff16908173ffffffffffffffffffffffffffffffffffffffff16815250508185604001907bffffffffffffffffffffffffffffffffffffffffffffffffffffffff191690817bffffffffffffffffffffffffffffffffffffffffffffffffffffffff191681525050849050949350505050565b61218a82600383516122d6565b61219d818361245b90919063ffffffff16565b505050565b60008060045490506001816121b791906131d6565b6004819055506000633c6d41b960e01b600080876000015188604001518660028b60800151600001516040516024016121f69796959493929190612ed2565b604051602081830303815290604052907bffffffffffffffffffffffffffffffffffffffffffffffffffffffff19166020820180517bffffffffffffffffffffffffffffffffffffffffffffffffffffffff838183161783525050505090506122618683868461247d565b925050509392505050565b6122746129f7565b60006020836122839190613651565b146122af576020826122959190613651565b60206122a19190613428565b826122ac91906131d6565b91505b81836020018181525050604051808452600081528281016020016040525082905092915050565b60178167ffffffffffffffff161161230d576123078160058460ff16901b60ff16178461262190919063ffffffff16565b50612456565b60ff8167ffffffffffffffff16116123635761233c601860058460ff16901b178461262190919063ffffffff16565b5061235d8167ffffffffffffffff166001856126419092919063ffffffff16565b50612455565b61ffff8167ffffffffffffffff16116123ba57612393601960058460ff16901b178461262190919063ffffffff16565b506123b48167ffffffffffffffff166002856126419092919063ffffffff16565b50612454565b63ffffffff8167ffffffffffffffff1611612413576123ec601a60058460ff16901b178461262190919063ffffffff16565b5061240d8167ffffffffffffffff166004856126419092919063ffffffff16565b50612453565b612430601b60058460ff16901b178461262190919063ffffffff16565b506124518167ffffffffffffffff166008856126419092919063ffffffff16565b505b5b5b5b505050565b6124636129f7565b61247583846000015151848551612663565b905092915050565b60003084604051602001612492929190612e74565b604051602081830303815290604052805190602001209050846005600083815260200190815260200160002060006101000a81548173ffffffffffffffffffffffffffffffffffffffff021916908373ffffffffffffffffffffffffffffffffffffffff160217905550807fb5e6e01e79f91267dc17b4e6314d5d4d03593d2ceee0fbb452b750bd70ea5af960405160405180910390a2600260009054906101000a900473ffffffffffffffffffffffffffffffffffffffff1673ffffffffffffffffffffffffffffffffffffffff16634000aea08685856040518463ffffffff1660e01b815260040161258893929190612f48565b602060405180830381600087803b1580156125a257600080fd5b505af11580156125b6573d6000803e3d6000fd5b505050506040513d601f19601f820116820180604052508101906125da9190612b51565b612619576040517f08c379a000000000000000000000000000000000000000000000000000000000815260040161261090613005565b60405180910390fd5b949350505050565b6126296129f7565b6126398384600001515184612752565b905092915050565b6126496129f7565b61265a8485600001515185856127a9565b90509392505050565b61266b6129f7565b825182111561267957600080fd5b8460200151828561268a91906131d6565b11156126bf576126be8560026126af886020015188876126aa91906131d6565b612837565b6126b991906133ce565b612853565b5b6000808651805187602083010193508088870111156126de5787860182525b60208701925050505b60208410612725578051825260208261270091906131d6565b915060208161270f91906131d6565b905060208461271e9190613428565b93506126e7565b60006001856020036101000a03905080198251168184511681811785525050508692505050949350505050565b61275a6129f7565b836020015183106127805761277f846002866020015161277a91906133ce565b612853565b5b835180516020858301018481538186141561279c576001820183525b5050508390509392505050565b6127b16129f7565b846020015184836127c291906131d6565b11156127ea576127e985600286856127da91906131d6565b6127e491906133ce565b612853565b5b60006001836101006127fc91906132b0565b6128069190613428565b905085518386820101858319825116178152815185880111156128295784870182525b505085915050949350505050565b6000818311156128495782905061284d565b8190505b92915050565b600082600001519050612866838361226c565b50612871838261245b565b50505050565b8280546128839061354d565b90600052602060002090601f0160209004810192826128a557600085556128ec565b82601f106128be57805160ff19168380011785556128ec565b828001600101855582156128ec579182015b828111156128eb5782518255916020019190600101906128d0565b5b5090506128f99190612a11565b5090565b8280546129099061354d565b90600052602060002090601f01602090048101928261292b5760008555612979565b82601f1061293c5780548555612979565b8280016001018555821561297957600052602060002091601f016020900482015b8281111561297857825482559160010191906001019061295d565b5b5090506129869190612a11565b5090565b6040518060a0016040528060008019168152602001600073ffffffffffffffffffffffffffffffffffffffff16815260200160007bffffffffffffffffffffffffffffffffffffffffffffffffffffffff19168152602001600081526020016129f16129f7565b81525090565b604051806040016040528060608152602001600081525090565b5b80821115612a2a576000816000905550600101612a12565b5090565b6000612a41612a3c84613157565b613132565b905082815260208101848484011115612a5957600080fd5b612a6484828561350b565b509392505050565b600081359050612a7b81613946565b92915050565b600081359050612a908161395d565b92915050565b600081519050612aa58161395d565b92915050565b600081359050612aba81613974565b92915050565b600082601f830112612ad157600080fd5b8135612ae1848260208601612a2e565b91505092915050565b600081519050612af98161398b565b92915050565b600060208284031215612b1157600080fd5b6000612b1f84828501612a6c565b91505092915050565b600060208284031215612b3a57600080fd5b6000612b4884828501612a81565b91505092915050565b600060208284031215612b6357600080fd5b6000612b7184828501612a96565b91505092915050565b60008060408385031215612b8d57600080fd5b6000612b9b85828601612aab565b925050602083013567ffffffffffffffff811115612bb857600080fd5b612bc485828601612ac0565b9150509250929050565b600060208284031215612be057600080fd5b6000612bee84828501612aea565b91505092915050565b612c008161345c565b82525050565b612c0f8161346e565b82525050565b612c1e8161347a565b82525050565b612c2d81613484565b82525050565b6000612c3e82613188565b612c48818561319e565b9350612c5881856020860161351a565b612c618161373e565b840191505092915050565b6000612c7782613188565b612c8181856131af565b9350612c9181856020860161351a565b80840191505092915050565b612cae612ca9826134e7565b613623565b82525050565b6000612cbf82613193565b612cc981856131ba565b9350612cd981856020860161351a565b612ce28161373e565b840191505092915050565b6000612cf882613193565b612d0281856131cb565b9350612d1281856020860161351a565b80840191505092915050565b6000612d2b601b836131ba565b9150612d3682613769565b602082019050919050565b6000612d4e6023836131ba565b9150612d5982613792565b604082019050919050565b6000612d716012836131ba565b9150612d7c826137e1565b602082019050919050565b6000612d946018836131ba565b9150612d9f8261380a565b602082019050919050565b6000612db76028836131ba565b9150612dc282613833565b604082019050919050565b6000612dda6053836131ba565b9150612de582613882565b606082019050919050565b6000612dfd6035836131ba565b9150612e08826138f7565b604082019050919050565b612e1c816134d0565b82525050565b612e33612e2e826134d0565b613647565b82525050565b6000612e458284612c6c565b915081905092915050565b6000612e5c8285612c6c565b9150612e688284612ced565b91508190509392505050565b6000612e808285612c9d565b601482019150612e908284612e22565b6020820191508190509392505050565b6000612eac8284612ced565b915081905092915050565b6000602082019050612ecc6000830184612bf7565b92915050565b600060e082019050612ee7600083018a612bf7565b612ef46020830189612e13565b612f016040830188612c15565b612f0e6060830187612c24565b612f1b6080830186612e13565b612f2860a0830185612e13565b81810360c0830152612f3a8184612c33565b905098975050505050505050565b6000606082019050612f5d6000830186612bf7565b612f6a6020830185612e13565b8181036040830152612f7c8184612c33565b9050949350505050565b6000602082019050612f9b6000830184612c06565b92915050565b60006020820190508181036000830152612fbb8184612c33565b905092915050565b60006020820190508181036000830152612fdd8184612cb4565b905092915050565b60006020820190508181036000830152612ffe81612d1e565b9050919050565b6000602082019050818103600083015261301e81612d41565b9050919050565b6000602082019050818103600083015261303e81612d64565b9050919050565b6000602082019050818103600083015261305e81612d87565b9050919050565b6000602082019050818103600083015261307e81612daa565b9050919050565b6000602082019050818103600083015261309e81612dcd565b9050919050565b600060208201905081810360008301526130be81612df0565b9050919050565b60006020820190506130da6000830184612e13565b92915050565b60006040820190506130f56000830185612e13565b6131026020830184612c06565b9392505050565b600060408201905061311e6000830185612e13565b61312b6020830184612e13565b9392505050565b600061313c61314d565b9050613148828261357f565b919050565b6000604051905090565b600067ffffffffffffffff8211156131725761317161370f565b5b61317b8261373e565b9050602081019050919050565b600081519050919050565b600081519050919050565b600082825260208201905092915050565b600081905092915050565b600082825260208201905092915050565b600081905092915050565b60006131e1826134d0565b91506131ec836134d0565b9250827fffffffffffffffffffffffffffffffffffffffffffffffffffffffffffffffff0382111561322157613220613682565b5b828201905092915050565b6000613237826134d0565b9150613242836134d0565b925082613252576132516136b1565b5b828204905092915050565b6000808291508390505b60018511156132a75780860481111561328357613282613682565b5b60018516156132925780820291505b80810290506132a08561375c565b9450613267565b94509492505050565b60006132bb826134d0565b91506132c6836134d0565b92506132f37fffffffffffffffffffffffffffffffffffffffffffffffffffffffffffffffff84846132fb565b905092915050565b60008261330b57600190506133c7565b8161331957600090506133c7565b816001811461332f576002811461333957613368565b60019150506133c7565b60ff84111561334b5761334a613682565b5b8360020a91508482111561336257613361613682565b5b506133c7565b5060208310610133831016604e8410600b841016171561339d5782820a90508381111561339857613397613682565b5b6133c7565b6133aa848484600161325d565b925090508184048111156133c1576133c0613682565b5b81810290505b9392505050565b60006133d9826134d0565b91506133e4836134d0565b9250817fffffffffffffffffffffffffffffffffffffffffffffffffffffffffffffffff048311821515161561341d5761341c613682565b5b828202905092915050565b6000613433826134d0565b915061343e836134d0565b92508282101561345157613450613682565b5b828203905092915050565b6000613467826134b0565b9050919050565b60008115159050919050565b6000819050919050565b60007fffffffff0000000000000000000000000000000000000000000000000000000082169050919050565b600073ffffffffffffffffffffffffffffffffffffffff82169050919050565b6000819050919050565b600060ff82169050919050565b60006134f2826134f9565b9050919050565b6000613504826134b0565b9050919050565b82818337600083830152505050565b60005b8381101561353857808201518184015260208101905061351d565b83811115613547576000848401525b50505050565b6000600282049050600182168061356557607f821691505b60208210811415613579576135786136e0565b5b50919050565b6135888261373e565b810181811067ffffffffffffffff821117156135a7576135a661370f565b5b80604052505050565b60006135bb826134d0565b91507fffffffffffffffffffffffffffffffffffffffffffffffffffffffffffffffff8214156135ee576135ed613682565b5b600182019050919050565b6000613604826134da565b915060ff82141561361857613617613682565b5b600182019050919050565b600061362e82613635565b9050919050565b60006136408261374f565b9050919050565b6000819050919050565b600061365c826134d0565b9150613667836134d0565b925082613677576136766136b1565b5b828206905092915050565b7f4e487b7100000000000000000000000000000000000000000000000000000000600052601160045260246000fd5b7f4e487b7100000000000000000000000000000000000000000000000000000000600052601260045260246000fd5b7f4e487b7100000000000000000000000000000000000000000000000000000000600052602260045260246000fd5b7f4e487b7100000000000000000000000000000000000000000000000000000000600052604160045260246000fd5b6000601f19601f8301169050919050565b60008160601b9050919050565b60008160011c9050919050565b7f746f53656e6420636f6d6573206f757420746f206265203c3d20300000000000600082015250565b7f756e61626c6520746f207472616e73666572416e6443616c6c20746f206f726160008201527f636c650000000000000000000000000000000000000000000000000000000000602082015250565b7f746f53656e64206d757374206265203e20300000000000000000000000000000600082015250565b7f74686520666978696e67207761732063616e63656c6c65640000000000000000600082015250565b7f536f75726365206d75737420626520746865206f7261636c65206f662074686560008201527f2072657175657374000000000000000000000000000000000000000000000000602082015250565b7f64656369646557696e6e65722063616e2062652063616c6c6564206f6e6c792060008201527f3120626c6f636b20616674657220636865636b526573756c742e20547279206160208201527f6761696e20696e20666577207365636f6e647300000000000000000000000000604082015250565b7f746865206d61746368206e6565647320746f2062652066696e6973686564206260008201527f65666f726520636c61696d696e67207072697a65730000000000000000000000602082015250565b61394f8161345c565b811461395a57600080fd5b50565b6139668161346e565b811461397157600080fd5b50565b61397d8161347a565b811461398857600080fd5b50565b613994816134d0565b811461399f57600080fd5b5056fe68747470733a2f2f7777772e74686573706f72747364622e636f6d2f6170692f76312f6a736f6e2f35303133303136322f6c6f6f6b75706576656e742e7068703f69643da26469706673582212202f6bf36975454caa5c90f400a7bf8c18a6883145efb678f83d76f853e78d348364736f6c63430008040033",
  "linkReferences": {},
  "deployedLinkReferences": {}
}