{
  "_format": "hh-sol-artifact-1",
  "contractName": "Fixture",
  "sourceName": "contracts/Fixture.sol",
  "abi": [
    {
      "inputs": [
        {
          "internalType": "uint256",
          "name": "_leagueId",
          "type": "uint256"
        },
        {
          "internalType": "uint256",
          "name": "_eventId",
          "type": "uint256"
        },
        {
          "internalType": "uint256",
          "name": "_time",
          "type": "uint256"
        }
      ],
      "stateMutability": "nonpayable",
      "type": "constructor"
    },
    {
      "anonymous": false,
      "inputs": [
        {
          "indexed": true,
          "internalType": "bytes32",
          "name": "id",
          "type": "bytes32"
        }
      ],
      "name": "ChainlinkCancelled",
      "type": "event"
    },
    {
      "anonymous": false,
      "inputs": [
        {
          "indexed": true,
          "internalType": "bytes32",
          "name": "id",
          "type": "bytes32"
        }
      ],
      "name": "ChainlinkFulfilled",
      "type": "event"
    },
    {
      "anonymous": false,
      "inputs": [
        {
          "indexed": true,
          "internalType": "bytes32",
          "name": "id",
          "type": "bytes32"
        }
      ],
      "name": "ChainlinkRequested",
      "type": "event"
    },
    {
      "anonymous": false,
      "inputs": [
        {
          "indexed": false,
          "internalType": "uint256",
          "name": "a",
          "type": "uint256"
        },
        {
          "indexed": false,
          "internalType": "uint256",
          "name": "b",
          "type": "uint256"
        }
      ],
      "name": "ReceivedResult",
      "type": "event"
    },
    {
      "anonymous": false,
      "inputs": [
        {
          "indexed": true,
          "internalType": "bytes32",
          "name": "requestId",
          "type": "bytes32"
        },
        {
          "indexed": true,
          "internalType": "bytes",
          "name": "data",
          "type": "bytes"
        }
      ],
      "name": "RequestFulfilled",
      "type": "event"
    },
    {
      "inputs": [
        {
          "internalType": "bool",
          "name": "_isHomeBet",
          "type": "bool"
        }
      ],
      "name": "addBet",
      "outputs": [],
      "stateMutability": "payable",
      "type": "function"
    },
    {
      "inputs": [
        {
          "internalType": "address",
          "name": "",
          "type": "address"
        }
      ],
      "name": "awayBets",
      "outputs": [
        {
          "internalType": "uint256",
          "name": "",
          "type": "uint256"
        }
      ],
      "stateMutability": "view",
      "type": "function"
    },
    {
      "inputs": [],
      "name": "awayScore",
      "outputs": [
        {
          "internalType": "string",
          "name": "",
          "type": "string"
        }
      ],
      "stateMutability": "view",
      "type": "function"
    },
    {
      "inputs": [],
      "name": "awayScoreInt",
      "outputs": [
        {
          "internalType": "uint256",
          "name": "",
          "type": "uint256"
        }
      ],
      "stateMutability": "view",
      "type": "function"
    },
    {
      "inputs": [],
      "name": "awaySum",
      "outputs": [
        {
          "internalType": "uint256",
          "name": "",
          "type": "uint256"
        }
      ],
      "stateMutability": "view",
      "type": "function"
    },
    {
      "inputs": [
        {
          "internalType": "address",
          "name": "_addr",
          "type": "address"
        }
      ],
      "name": "calculateWinnings",
      "outputs": [
        {
          "internalType": "uint256",
          "name": "",
          "type": "uint256"
        }
      ],
      "stateMutability": "view",
      "type": "function"
    },
    {
      "inputs": [],
      "name": "cancelMatch",
      "outputs": [],
      "stateMutability": "nonpayable",
      "type": "function"
    },
    {
      "inputs": [],
      "name": "checkResult",
      "outputs": [],
      "stateMutability": "nonpayable",
      "type": "function"
    },
    {
      "inputs": [],
      "name": "checkedResultTimestamp",
      "outputs": [
        {
          "internalType": "uint256",
          "name": "",
          "type": "uint256"
        }
      ],
      "stateMutability": "view",
      "type": "function"
    },
    {
      "inputs": [],
      "name": "data",
      "outputs": [
        {
          "internalType": "bytes",
          "name": "",
          "type": "bytes"
        }
      ],
      "stateMutability": "view",
      "type": "function"
    },
    {
      "inputs": [],
      "name": "decideWinner",
      "outputs": [],
      "stateMutability": "nonpayable",
      "type": "function"
    },
    {
      "inputs": [
        {
          "internalType": "bool",
          "name": "_isHomeBet",
          "type": "bool"
        }
      ],
      "name": "earlyWithdrawBet",
      "outputs": [],
      "stateMutability": "nonpayable",
      "type": "function"
    },
    {
      "inputs": [],
      "name": "eventId",
      "outputs": [
        {
          "internalType": "uint256",
          "name": "",
          "type": "uint256"
        }
      ],
      "stateMutability": "view",
      "type": "function"
    },
    {
      "inputs": [
        {
          "internalType": "bytes32",
          "name": "requestId",
          "type": "bytes32"
        },
        {
          "internalType": "bytes",
          "name": "bytesData",
          "type": "bytes"
        }
      ],
      "name": "getAwayScore",
      "outputs": [],
      "stateMutability": "nonpayable",
      "type": "function"
    },
    {
      "inputs": [
        {
          "internalType": "bytes32",
          "name": "requestId",
          "type": "bytes32"
        },
        {
          "internalType": "bytes",
          "name": "bytesData",
          "type": "bytes"
        }
      ],
      "name": "getHomeScore",
      "outputs": [],
      "stateMutability": "nonpayable",
      "type": "function"
    },
    {
      "inputs": [],
      "name": "getLINKBalance",
      "outputs": [
        {
          "internalType": "uint256",
          "name": "",
          "type": "uint256"
        },
        {
          "internalType": "bool",
          "name": "",
          "type": "bool"
        }
      ],
      "stateMutability": "view",
      "type": "function"
    },
    {
      "inputs": [],
      "name": "getWinnings",
      "outputs": [],
      "stateMutability": "nonpayable",
      "type": "function"
    },
    {
      "inputs": [
        {
          "internalType": "address",
          "name": "",
          "type": "address"
        }
      ],
      "name": "homeBets",
      "outputs": [
        {
          "internalType": "uint256",
          "name": "",
          "type": "uint256"
        }
      ],
      "stateMutability": "view",
      "type": "function"
    },
    {
      "inputs": [],
      "name": "homeScore",
      "outputs": [
        {
          "internalType": "string",
          "name": "",
          "type": "string"
        }
      ],
      "stateMutability": "view",
      "type": "function"
    },
    {
      "inputs": [],
      "name": "homeScoreInt",
      "outputs": [
        {
          "internalType": "uint256",
          "name": "",
          "type": "uint256"
        }
      ],
      "stateMutability": "view",
      "type": "function"
    },
    {
      "inputs": [],
      "name": "homeSum",
      "outputs": [
        {
          "internalType": "uint256",
          "name": "",
          "type": "uint256"
        }
      ],
      "stateMutability": "view",
      "type": "function"
    },
    {
      "inputs": [],
      "name": "isCancelled",
      "outputs": [
        {
          "internalType": "bool",
          "name": "",
          "type": "bool"
        }
      ],
      "stateMutability": "view",
      "type": "function"
    },
    {
      "inputs": [],
      "name": "isFinished",
      "outputs": [
        {
          "internalType": "bool",
          "name": "",
          "type": "bool"
        }
      ],
      "stateMutability": "view",
      "type": "function"
    },
    {
      "inputs": [],
      "name": "leagueId",
      "outputs": [
        {
          "internalType": "uint256",
          "name": "",
          "type": "uint256"
        }
      ],
      "stateMutability": "view",
      "type": "function"
    },
    {
      "inputs": [],
      "name": "returnLinkTokens",
      "outputs": [],
      "stateMutability": "nonpayable",
      "type": "function"
    },
    {
      "inputs": [],
      "name": "stringTemp",
      "outputs": [
        {
          "internalType": "string",
          "name": "",
          "type": "string"
        }
      ],
      "stateMutability": "view",
      "type": "function"
    },
    {
      "inputs": [],
      "name": "time",
      "outputs": [
        {
          "internalType": "uint256",
          "name": "",
          "type": "uint256"
        }
      ],
      "stateMutability": "view",
      "type": "function"
    },
    {
      "inputs": [],
      "name": "winner",
      "outputs": [
        {
          "internalType": "uint256",
          "name": "",
          "type": "uint256"
        }
      ],
      "stateMutability": "view",
      "type": "function"
    },
    {
      "inputs": [],
      "name": "withdrawIfCancelled",
      "outputs": [],
      "stateMutability": "nonpayable",
      "type": "function"
    }
  ],
  "bytecode": "0x608060405260016004556001600d60006101000a81548160ff0219169083151502179055506000600d60016101000a81548160ff0219169083151502179055506001600e556001600f55662386f26fc0ffff6016553480156200006157600080fd5b5060405162003cb138038062003cb18339818101604052810190620000879190620001cf565b33600760006101000a81548173ffffffffffffffffffffffffffffffffffffffff021916908373ffffffffffffffffffffffffffffffffffffffff160217905550826008819055508160098190555080600a819055506200010273a36085f69e2889c224210f603d836748e7dc00886200013060201b60201c565b620001277374ecc8bdeb76f2c6760ed2dc8a46ca5e581fa6566200017460201b60201c565b50505062000249565b80600260006101000a81548173ffffffffffffffffffffffffffffffffffffffff021916908373ffffffffffffffffffffffffffffffffffffffff16021790555050565b80600360006101000a81548173ffffffffffffffffffffffffffffffffffffffff021916908373ffffffffffffffffffffffffffffffffffffffff16021790555050565b600081519050620001c9816200022f565b92915050565b600080600060608486031215620001e557600080fd5b6000620001f586828701620001b8565b93505060206200020886828701620001b8565b92505060406200021b86828701620001b8565b9150509250925092565b6000819050919050565b6200023a8162000225565b81146200024657600080fd5b50565b613a5880620002596000396000f3fe6080604052600436106101c25760003560e01c80637b352962116100f7578063c3b758e711610095578063dc3db59911610064578063dc3db599146105a1578063dfbf53ae146105de578063e7a6ee8814610609578063efc7760014610625576101c2565b8063c3b758e7146104f9578063d38d963914610522578063d4ccf5451461054d578063d972e89c1461058a576101c2565b80639b5c7d27116100d15780639b5c7d2714610474578063a21d942f1461048b578063ac428e7a146104a2578063b6a1f7a2146104ce576101c2565b80637b352962146103f35780638bf263891461041e57806395ee122114610449576101c2565b8063386748fe116101645780636adf56c71161013e5780636adf56c71461036f5780636db5fc9c1461038657806370b7596b146103b157806373d4a13a146103c8576101c2565b8063386748fe146102de5780633f0c8d2b14610307578063464800af14610344576101c2565b806316ada547116101a057806316ada547146102485780631a8972041461027357806325402e741461029e578063334adea9146102b5576101c2565b8063089cdd0c146101c75780630a95cd80146101f2578063141248b91461021d575b600080fd5b3480156101d357600080fd5b506101dc610650565b6040516101e99190613101565b60405180910390f35b3480156101fe57600080fd5b50610207610656565b6040516102149190612fff565b60405180910390f35b34801561022957600080fd5b506102326106e4565b60405161023f9190613101565b60405180910390f35b34801561025457600080fd5b5061025d6106ea565b60405161026a9190613101565b60405180910390f35b34801561027f57600080fd5b506102886106f0565b6040516102959190613101565b60405180910390f35b3480156102aa57600080fd5b506102b36106f6565b005b3480156102c157600080fd5b506102dc60048036038101906102d79190612bb6565b610817565b005b3480156102ea57600080fd5b5061030560048036038101906103009190612bb6565b610997565b005b34801561031357600080fd5b5061032e60048036038101906103299190612b3b565b610b17565b60405161033b9190613101565b60405180910390f35b34801561035057600080fd5b50610359610d55565b6040516103669190613101565b60405180910390f35b34801561037b57600080fd5b50610384610d5b565b005b34801561039257600080fd5b5061039b610d5d565b6040516103a89190612fff565b60405180910390f35b3480156103bd57600080fd5b506103c6610deb565b005b3480156103d457600080fd5b506103dd6111bf565b6040516103ea9190612fdd565b60405180910390f35b3480156103ff57600080fd5b5061040861124d565b6040516104159190612fc2565b60405180910390f35b34801561042a57600080fd5b50610433611260565b6040516104409190613101565b60405180910390f35b34801561045557600080fd5b5061045e611266565b60405161046b9190612fc2565b60405180910390f35b34801561048057600080fd5b50610489611279565b005b34801561049757600080fd5b506104a06112f0565b005b3480156104ae57600080fd5b506104b7611309565b6040516104c592919061311c565b60405180910390f35b3480156104da57600080fd5b506104e36113d7565b6040516104f09190613101565b60405180910390f35b34801561050557600080fd5b50610520600480360381019061051b9190612b64565b6113dd565b005b34801561052e57600080fd5b506105376115a2565b6040516105449190612fff565b60405180910390f35b34801561055957600080fd5b50610574600480360381019061056f9190612b3b565b611630565b6040516105819190613101565b60405180910390f35b34801561059657600080fd5b5061059f611648565b005b3480156105ad57600080fd5b506105c860048036038101906105c39190612b3b565b6117d0565b6040516105d59190613101565b60405180910390f35b3480156105ea57600080fd5b506105f36117e8565b6040516106009190613101565b60405180910390f35b610623600480360381019061061e9190612b64565b6117ee565b005b34801561063157600080fd5b5061063a6118ef565b6040516106479190613101565b60405180910390f35b60095481565b6015805461066390613589565b80601f016020809104026020016040519081016040528092919081815260200182805461068f90613589565b80156106dc5780601f106106b1576101008083540402835291602001916106dc565b820191906000526020600020905b8154815290600101906020018083116106bf57829003601f168201915b505050505081565b60135481565b600a5481565b600f5481565b60016016546107059190613212565b4311610746576040517f08c379a000000000000000000000000000000000000000000000000000000000815260040161073d906130c1565b60405180910390fd5b61074e6118f5565b610756611a40565b601454601354111561076f576001601081905550610792565b6014546013541415610788576002601081905550610791565b60036010819055505b5b600a544211156107bc576001600d60006101000a81548160ff0219169083151502179055506107d8565b6001600d60006101000a81548160ff0219169083151502179055505b7fd9010b1425bd2a0c19f6b8a53728719ed04087563fc41a0c5c531f31250d202960135460145460405161080d929190613145565b60405180910390a1565b816005600082815260200190815260200160002060009054906101000a900473ffffffffffffffffffffffffffffffffffffffff1673ffffffffffffffffffffffffffffffffffffffff163373ffffffffffffffffffffffffffffffffffffffff16146108b9576040517f08c379a00000000000000000000000000000000000000000000000000000000081526004016108b0906130a1565b60405180910390fd5b6005600082815260200190815260200160002060006101000a81549073ffffffffffffffffffffffffffffffffffffffff0219169055807f7cc135e0cebb02c3480ae5d74d377283180a2601f8f644edf7987b009316c63a60405160405180910390a28160405161092a9190612e75565b6040518091039020837f1a111c5dcf9a71088bd5e1797fdfaf399fec2afbb24aca247e4e3e9f4b61df9160405160405180910390a381600690805190602001906109759291906128b3565b506006601190805461098690613589565b610991929190612939565b50505050565b816005600082815260200190815260200160002060009054906101000a900473ffffffffffffffffffffffffffffffffffffffff1673ffffffffffffffffffffffffffffffffffffffff163373ffffffffffffffffffffffffffffffffffffffff1614610a39576040517f08c379a0000000000000000000000000000000000000000000000000000000008152600401610a30906130a1565b60405180910390fd5b6005600082815260200190815260200160002060006101000a81549073ffffffffffffffffffffffffffffffffffffffff0219169055807f7cc135e0cebb02c3480ae5d74d377283180a2601f8f644edf7987b009316c63a60405160405180910390a281604051610aaa9190612e75565b6040518091039020837f1a111c5dcf9a71088bd5e1797fdfaf399fec2afbb24aca247e4e3e9f4b61df9160405160405180910390a38160069080519060200190610af59291906128b3565b5060066012908054610b0690613589565b610b11929190612939565b50505050565b6000600d60019054906101000a900460ff1615610b69576040517f08c379a0000000000000000000000000000000000000000000000000000000008152600401610b6090613081565b60405180910390fd5b600d60009054906101000a900460ff16610bb8576040517f08c379a0000000000000000000000000000000000000000000000000000000008152600401610baf906130e1565b60405180910390fd5b600060016010541415610c3657600f54600e54610bd59190613212565b600b60008573ffffffffffffffffffffffffffffffffffffffff1673ffffffffffffffffffffffffffffffffffffffff16815260200190815260200160002054610c1f919061340a565b9050600e5481610c2f9190613268565b9050610d4c565b60026010541415610cd257600c60008473ffffffffffffffffffffffffffffffffffffffff1673ffffffffffffffffffffffffffffffffffffffff16815260200190815260200160002054600b60008573ffffffffffffffffffffffffffffffffffffffff1673ffffffffffffffffffffffffffffffffffffffff16815260200190815260200160002054610ccb9190613212565b9050610d4b565b60036010541415610d4a57600f54600e54610ced9190613212565b600c60008573ffffffffffffffffffffffffffffffffffffffff1673ffffffffffffffffffffffffffffffffffffffff16815260200190815260200160002054610d37919061340a565b9050600f5481610d479190613268565b90505b5b5b80915050919050565b60085481565b565b60118054610d6a90613589565b80601f0160208091040260200160405190810160405280929190818152602001828054610d9690613589565b8015610de35780601f10610db857610100808354040283529160200191610de3565b820191906000526020600020905b815481529060010190602001808311610dc657829003601f168201915b505050505081565b600d60019054906101000a900460ff1615610e3b576040517f08c379a0000000000000000000000000000000000000000000000000000000008152600401610e3290613081565b60405180910390fd5b600d60009054906101000a900460ff16610e8a576040517f08c379a0000000000000000000000000000000000000000000000000000000008152600401610e81906130e1565b60405180910390fd5b600060016010541415610f4d57600f54600e54610ea79190613212565b600b60003373ffffffffffffffffffffffffffffffffffffffff1673ffffffffffffffffffffffffffffffffffffffff16815260200190815260200160002054610ef1919061340a565b9050600e5481610f019190613268565b90506000600b60003373ffffffffffffffffffffffffffffffffffffffff1673ffffffffffffffffffffffffffffffffffffffff16815260200190815260200160002081905550611132565b6002601054141561107357600c60003373ffffffffffffffffffffffffffffffffffffffff1673ffffffffffffffffffffffffffffffffffffffff16815260200190815260200160002054600b60003373ffffffffffffffffffffffffffffffffffffffff1673ffffffffffffffffffffffffffffffffffffffff16815260200190815260200160002054610fe29190613212565b90506000600b60003373ffffffffffffffffffffffffffffffffffffffff1673ffffffffffffffffffffffffffffffffffffffff168152602001908152602001600020819055506000600c60003373ffffffffffffffffffffffffffffffffffffffff1673ffffffffffffffffffffffffffffffffffffffff16815260200190815260200160002081905550611131565b6003601054141561113057600f54600e5461108e9190613212565b600c60003373ffffffffffffffffffffffffffffffffffffffff1673ffffffffffffffffffffffffffffffffffffffff168152602001908152602001600020546110d8919061340a565b9050600f54816110e89190613268565b90506000600c60003373ffffffffffffffffffffffffffffffffffffffff1673ffffffffffffffffffffffffffffffffffffffff168152602001908152602001600020819055505b5b5b60008111611175576040517f08c379a000000000000000000000000000000000000000000000000000000000815260040161116c90613021565b60405180910390fd5b3373ffffffffffffffffffffffffffffffffffffffff166108fc829081150290604051600060405180830381858888f193505050501580156111bb573d6000803e3d6000fd5b5050565b600680546111cc90613589565b80601f01602080910402602001604051908101604052809291908181526020018280546111f890613589565b80156112455780601f1061121a57610100808354040283529160200191611245565b820191906000526020600020905b81548152906001019060200180831161122857829003601f168201915b505050505081565b600d60009054906101000a900460ff1681565b600e5481565b600d60019054906101000a900460ff1681565b600760009054906101000a900473ffffffffffffffffffffffffffffffffffffffff1673ffffffffffffffffffffffffffffffffffffffff163373ffffffffffffffffffffffffffffffffffffffff16146112d357600080fd5b6001600d60016101000a81548160ff021916908315150217905550565b6112f8611b8b565b611300611d26565b43601681905550565b600080600073a36085f69e2889c224210f603d836748e7dc008873ffffffffffffffffffffffffffffffffffffffff166370a08231306040518263ffffffff1660e01b815260040161135b9190612ef3565b60206040518083038186803b15801561137357600080fd5b505afa158015611387573d6000803e3d6000fd5b505050506040513d601f19601f820116820180604052508101906113ab9190612c0a565b90506702c68af0bb1400008111156113ca5780600192509250506113d3565b80600092509250505b9091565b60145481565b6000811561147157600b60003373ffffffffffffffffffffffffffffffffffffffff1673ffffffffffffffffffffffffffffffffffffffff1681526020019081526020016000205490506000600b60003373ffffffffffffffffffffffffffffffffffffffff1673ffffffffffffffffffffffffffffffffffffffff168152602001908152602001600020819055506114f9565b600c60003373ffffffffffffffffffffffffffffffffffffffff1673ffffffffffffffffffffffffffffffffffffffff1681526020019081526020016000205490506000600c60003373ffffffffffffffffffffffffffffffffffffffff1673ffffffffffffffffffffffffffffffffffffffff168152602001908152602001600020819055505b6064605a82611508919061340a565b6115129190613268565b905060008111611557576040517f08c379a000000000000000000000000000000000000000000000000000000000815260040161154e90613061565b60405180910390fd5b3373ffffffffffffffffffffffffffffffffffffffff166108fc829081150290604051600060405180830381858888f1935050505015801561159d573d6000803e3d6000fd5b505050565b601280546115af90613589565b80601f01602080910402602001604051908101604052809291908181526020018280546115db90613589565b80156116285780601f106115fd57610100808354040283529160200191611628565b820191906000526020600020905b81548152906001019060200180831161160b57829003601f168201915b505050505081565b600b6020528060005260406000206000915090505481565b600d60019054906101000a900460ff1661166157600080fd5b6000600c60003373ffffffffffffffffffffffffffffffffffffffff1673ffffffffffffffffffffffffffffffffffffffff16815260200190815260200160002054600b60003373ffffffffffffffffffffffffffffffffffffffff1673ffffffffffffffffffffffffffffffffffffffff168152602001908152602001600020546116ed9190613212565b9050600081116116fc57600080fd5b6000600b60003373ffffffffffffffffffffffffffffffffffffffff1673ffffffffffffffffffffffffffffffffffffffff168152602001908152602001600020819055506000600c60003373ffffffffffffffffffffffffffffffffffffffff1673ffffffffffffffffffffffffffffffffffffffff168152602001908152602001600020819055503373ffffffffffffffffffffffffffffffffffffffff166108fc829081150290604051600060405180830381858888f193505050501580156117cc573d6000803e3d6000fd5b5050565b600c6020528060005260406000206000915090505481565b60105481565b662386f26fc1000034101561180257600080fd5b801561187c5734600b60003373ffffffffffffffffffffffffffffffffffffffff1673ffffffffffffffffffffffffffffffffffffffff16815260200190815260200160002060008282546118579190613212565b9250508190555034600e60008282546118709190613212565b925050819055506118ec565b34600c60003373ffffffffffffffffffffffffffffffffffffffff1673ffffffffffffffffffffffffffffffffffffffff16815260200190815260200160002060008282546118cb9190613212565b9250508190555034600f60008282546118e49190613212565b925050819055505b50565b60165481565b60006011805461190490613589565b80601f016020809104026020016040519081016040528092919081815260200182805461193090613589565b801561197d5780601f106119525761010080835404028352916020019161197d565b820191906000526020600020905b81548152906001019060200180831161196057829003601f168201915b5050505050905060005b81518160ff161015611a3c576000828260ff16815181106119d1577f4e487b7100000000000000000000000000000000000000000000000000000000600052603260045260246000fd5b602001015160f81c60f81b60f81c60ff169050603081101580156119f6575060398111155b15611a2857603081611a089190613464565b600a601354611a17919061340a565b611a219190613212565b6013819055505b508080611a3490613635565b915050611987565b5050565b600060128054611a4f90613589565b80601f0160208091040260200160405190810160405280929190818152602001828054611a7b90613589565b8015611ac85780601f10611a9d57610100808354040283529160200191611ac8565b820191906000526020600020905b815481529060010190602001808311611aab57829003601f168201915b5050505050905060005b81518160ff161015611b87576000828260ff1681518110611b1c577f4e487b7100000000000000000000000000000000000000000000000000000000600052603260045260246000fd5b602001015160f81c60f81b60f81c60ff16905060308110158015611b41575060398111155b15611b7357603081611b539190613464565b600a601454611b62919061340a565b611b6c9190613212565b6014819055505b508080611b7f90613635565b915050611ad2565b5050565b60007f37646132373032663337666434386535623162396135373135653335303962369050600067016345785d8a000090506000611bd1833063334adea960e01b611ec1565b905060006040518060800160405280604481526020016139df6044913990506000611bfd600954611ef2565b9050606082604051602001611c129190612edc565b60405160208183030381529060405290508082604051602001611c36929190612e8c565b6040516020818303038152906040529050809250611c946040518060400160405280600381526020017f6765740000000000000000000000000000000000000000000000000000000000815250848661209f9092919063ffffffff16565b611d136040518060400160405280600481526020017f70617468000000000000000000000000000000000000000000000000000000008152506040518060400160405280601581526020017f6576656e74732c302c696e74486f6d6553636f726500000000000000000000008152508661209f9092919063ffffffff16565b611d1d84866120d2565b50505050505050565b60007f37646132373032663337666434386535623162396135373135653335303962369050600067016345785d8a000090506000611d6c833063386748fe60e01b611ec1565b905060006040518060800160405280604481526020016139df6044913990506000611d98600954611ef2565b9050606082604051602001611dad9190612edc565b60405160208183030381529060405290508082604051602001611dd1929190612e8c565b6040516020818303038152906040529050809250611e2f6040518060400160405280600381526020017f6765740000000000000000000000000000000000000000000000000000000000815250848661209f9092919063ffffffff16565b611eae6040518060400160405280600481526020017f70617468000000000000000000000000000000000000000000000000000000008152506040518060400160405280601581526020017f6576656e74732c302c696e744177617953636f726500000000000000000000008152508661209f9092919063ffffffff16565b611eb884866120d2565b50505050505050565b611ec96129c6565b611ed16129c6565b611ee885858584612109909392919063ffffffff16565b9150509392505050565b60606000821415611f3a576040518060400160405280600181526020017f3000000000000000000000000000000000000000000000000000000000000000815250905061209a565b600082905060005b60008214611f6c578080611f55906135ec565b915050600a82611f659190613268565b9150611f42565b60008167ffffffffffffffff811115611fae577f4e487b7100000000000000000000000000000000000000000000000000000000600052604160045260246000fd5b6040519080825280601f01601f191660200182016040528015611fe05781602001600182028036833780820191505090505b5090505b6000851461209357600182611ff99190613464565b9150600a85612008919061368d565b60306120149190613212565b60f81b818381518110612050577f4e487b7100000000000000000000000000000000000000000000000000000000600052603260045260246000fd5b60200101907effffffffffffffffffffffffffffffffffffffffffffffffffffffffffffff1916908160001a905350600a8561208c9190613268565b9450611fe4565b8093505050505b919050565b6120b68284608001516121b990919063ffffffff16565b6120cd8184608001516121b990919063ffffffff16565b505050565b6000612101600360009054906101000a900473ffffffffffffffffffffffffffffffffffffffff1684846121de565b905092915050565b6121116129c6565b61212185608001516101006122a8565b508385600001818152505082856020019073ffffffffffffffffffffffffffffffffffffffff16908173ffffffffffffffffffffffffffffffffffffffff16815250508185604001907bffffffffffffffffffffffffffffffffffffffffffffffffffffffff191690817bffffffffffffffffffffffffffffffffffffffffffffffffffffffff191681525050849050949350505050565b6121c68260038351612312565b6121d9818361249790919063ffffffff16565b505050565b60008060045490506001816121f39190613212565b6004819055506000633c6d41b960e01b600080876000015188604001518660028b60800151600001516040516024016122329796959493929190612f0e565b604051602081830303815290604052907bffffffffffffffffffffffffffffffffffffffffffffffffffffffff19166020820180517bffffffffffffffffffffffffffffffffffffffffffffffffffffffff8381831617835250505050905061229d868386846124b9565b925050509392505050565b6122b0612a33565b60006020836122bf919061368d565b146122eb576020826122d1919061368d565b60206122dd9190613464565b826122e89190613212565b91505b81836020018181525050604051808452600081528281016020016040525082905092915050565b60178167ffffffffffffffff1611612349576123438160058460ff16901b60ff16178461265d90919063ffffffff16565b50612492565b60ff8167ffffffffffffffff161161239f57612378601860058460ff16901b178461265d90919063ffffffff16565b506123998167ffffffffffffffff1660018561267d9092919063ffffffff16565b50612491565b61ffff8167ffffffffffffffff16116123f6576123cf601960058460ff16901b178461265d90919063ffffffff16565b506123f08167ffffffffffffffff1660028561267d9092919063ffffffff16565b50612490565b63ffffffff8167ffffffffffffffff161161244f57612428601a60058460ff16901b178461265d90919063ffffffff16565b506124498167ffffffffffffffff1660048561267d9092919063ffffffff16565b5061248f565b61246c601b60058460ff16901b178461265d90919063ffffffff16565b5061248d8167ffffffffffffffff1660088561267d9092919063ffffffff16565b505b5b5b5b505050565b61249f612a33565b6124b18384600001515184855161269f565b905092915050565b600030846040516020016124ce929190612eb0565b604051602081830303815290604052805190602001209050846005600083815260200190815260200160002060006101000a81548173ffffffffffffffffffffffffffffffffffffffff021916908373ffffffffffffffffffffffffffffffffffffffff160217905550807fb5e6e01e79f91267dc17b4e6314d5d4d03593d2ceee0fbb452b750bd70ea5af960405160405180910390a2600260009054906101000a900473ffffffffffffffffffffffffffffffffffffffff1673ffffffffffffffffffffffffffffffffffffffff16634000aea08685856040518463ffffffff1660e01b81526004016125c493929190612f84565b602060405180830381600087803b1580156125de57600080fd5b505af11580156125f2573d6000803e3d6000fd5b505050506040513d601f19601f820116820180604052508101906126169190612b8d565b612655576040517f08c379a000000000000000000000000000000000000000000000000000000000815260040161264c90613041565b60405180910390fd5b949350505050565b612665612a33565b612675838460000151518461278e565b905092915050565b612685612a33565b6126968485600001515185856127e5565b90509392505050565b6126a7612a33565b82518211156126b557600080fd5b846020015182856126c69190613212565b11156126fb576126fa8560026126eb886020015188876126e69190613212565b612873565b6126f5919061340a565b61288f565b5b60008086518051876020830101935080888701111561271a5787860182525b60208701925050505b60208410612761578051825260208261273c9190613212565b915060208161274b9190613212565b905060208461275a9190613464565b9350612723565b60006001856020036101000a03905080198251168184511681811785525050508692505050949350505050565b612796612a33565b836020015183106127bc576127bb84600286602001516127b6919061340a565b61288f565b5b83518051602085830101848153818614156127d8576001820183525b5050508390509392505050565b6127ed612a33565b846020015184836127fe9190613212565b11156128265761282585600286856128169190613212565b612820919061340a565b61288f565b5b600060018361010061283891906132ec565b6128429190613464565b905085518386820101858319825116178152815185880111156128655784870182525b505085915050949350505050565b60008183111561288557829050612889565b8190505b92915050565b6000826000015190506128a283836122a8565b506128ad8382612497565b50505050565b8280546128bf90613589565b90600052602060002090601f0160209004810192826128e15760008555612928565b82601f106128fa57805160ff1916838001178555612928565b82800160010185558215612928579182015b8281111561292757825182559160200191906001019061290c565b5b5090506129359190612a4d565b5090565b82805461294590613589565b90600052602060002090601f01602090048101928261296757600085556129b5565b82601f1061297857805485556129b5565b828001600101855582156129b557600052602060002091601f016020900482015b828111156129b4578254825591600101919060010190612999565b5b5090506129c29190612a4d565b5090565b6040518060a0016040528060008019168152602001600073ffffffffffffffffffffffffffffffffffffffff16815260200160007bffffffffffffffffffffffffffffffffffffffffffffffffffffffff1916815260200160008152602001612a2d612a33565b81525090565b604051806040016040528060608152602001600081525090565b5b80821115612a66576000816000905550600101612a4e565b5090565b6000612a7d612a7884613193565b61316e565b905082815260208101848484011115612a9557600080fd5b612aa0848285613547565b509392505050565b600081359050612ab781613982565b92915050565b600081359050612acc81613999565b92915050565b600081519050612ae181613999565b92915050565b600081359050612af6816139b0565b92915050565b600082601f830112612b0d57600080fd5b8135612b1d848260208601612a6a565b91505092915050565b600081519050612b35816139c7565b92915050565b600060208284031215612b4d57600080fd5b6000612b5b84828501612aa8565b91505092915050565b600060208284031215612b7657600080fd5b6000612b8484828501612abd565b91505092915050565b600060208284031215612b9f57600080fd5b6000612bad84828501612ad2565b91505092915050565b60008060408385031215612bc957600080fd5b6000612bd785828601612ae7565b925050602083013567ffffffffffffffff811115612bf457600080fd5b612c0085828601612afc565b9150509250929050565b600060208284031215612c1c57600080fd5b6000612c2a84828501612b26565b91505092915050565b612c3c81613498565b82525050565b612c4b816134aa565b82525050565b612c5a816134b6565b82525050565b612c69816134c0565b82525050565b6000612c7a826131c4565b612c8481856131da565b9350612c94818560208601613556565b612c9d8161377a565b840191505092915050565b6000612cb3826131c4565b612cbd81856131eb565b9350612ccd818560208601613556565b80840191505092915050565b612cea612ce582613523565b61365f565b82525050565b6000612cfb826131cf565b612d0581856131f6565b9350612d15818560208601613556565b612d1e8161377a565b840191505092915050565b6000612d34826131cf565b612d3e8185613207565b9350612d4e818560208601613556565b80840191505092915050565b6000612d67601b836131f6565b9150612d72826137a5565b602082019050919050565b6000612d8a6023836131f6565b9150612d95826137ce565b604082019050919050565b6000612dad6012836131f6565b9150612db88261381d565b602082019050919050565b6000612dd06018836131f6565b9150612ddb82613846565b602082019050919050565b6000612df36028836131f6565b9150612dfe8261386f565b604082019050919050565b6000612e166053836131f6565b9150612e21826138be565b606082019050919050565b6000612e396035836131f6565b9150612e4482613933565b604082019050919050565b612e588161350c565b82525050565b612e6f612e6a8261350c565b613683565b82525050565b6000612e818284612ca8565b915081905092915050565b6000612e988285612ca8565b9150612ea48284612d29565b91508190509392505050565b6000612ebc8285612cd9565b601482019150612ecc8284612e5e565b6020820191508190509392505050565b6000612ee88284612d29565b915081905092915050565b6000602082019050612f086000830184612c33565b92915050565b600060e082019050612f23600083018a612c33565b612f306020830189612e4f565b612f3d6040830188612c51565b612f4a6060830187612c60565b612f576080830186612e4f565b612f6460a0830185612e4f565b81810360c0830152612f768184612c6f565b905098975050505050505050565b6000606082019050612f996000830186612c33565b612fa66020830185612e4f565b8181036040830152612fb88184612c6f565b9050949350505050565b6000602082019050612fd76000830184612c42565b92915050565b60006020820190508181036000830152612ff78184612c6f565b905092915050565b600060208201905081810360008301526130198184612cf0565b905092915050565b6000602082019050818103600083015261303a81612d5a565b9050919050565b6000602082019050818103600083015261305a81612d7d565b9050919050565b6000602082019050818103600083015261307a81612da0565b9050919050565b6000602082019050818103600083015261309a81612dc3565b9050919050565b600060208201905081810360008301526130ba81612de6565b9050919050565b600060208201905081810360008301526130da81612e09565b9050919050565b600060208201905081810360008301526130fa81612e2c565b9050919050565b60006020820190506131166000830184612e4f565b92915050565b60006040820190506131316000830185612e4f565b61313e6020830184612c42565b9392505050565b600060408201905061315a6000830185612e4f565b6131676020830184612e4f565b9392505050565b6000613178613189565b905061318482826135bb565b919050565b6000604051905090565b600067ffffffffffffffff8211156131ae576131ad61374b565b5b6131b78261377a565b9050602081019050919050565b600081519050919050565b600081519050919050565b600082825260208201905092915050565b600081905092915050565b600082825260208201905092915050565b600081905092915050565b600061321d8261350c565b91506132288361350c565b9250827fffffffffffffffffffffffffffffffffffffffffffffffffffffffffffffffff0382111561325d5761325c6136be565b5b828201905092915050565b60006132738261350c565b915061327e8361350c565b92508261328e5761328d6136ed565b5b828204905092915050565b6000808291508390505b60018511156132e3578086048111156132bf576132be6136be565b5b60018516156132ce5780820291505b80810290506132dc85613798565b94506132a3565b94509492505050565b60006132f78261350c565b91506133028361350c565b925061332f7fffffffffffffffffffffffffffffffffffffffffffffffffffffffffffffffff8484613337565b905092915050565b6000826133475760019050613403565b816133555760009050613403565b816001811461336b5760028114613375576133a4565b6001915050613403565b60ff841115613387576133866136be565b5b8360020a91508482111561339e5761339d6136be565b5b50613403565b5060208310610133831016604e8410600b84101617156133d95782820a9050838111156133d4576133d36136be565b5b613403565b6133e68484846001613299565b925090508184048111156133fd576133fc6136be565b5b81810290505b9392505050565b60006134158261350c565b91506134208361350c565b9250817fffffffffffffffffffffffffffffffffffffffffffffffffffffffffffffffff0483118215151615613459576134586136be565b5b828202905092915050565b600061346f8261350c565b915061347a8361350c565b92508282101561348d5761348c6136be565b5b828203905092915050565b60006134a3826134ec565b9050919050565b60008115159050919050565b6000819050919050565b60007fffffffff0000000000000000000000000000000000000000000000000000000082169050919050565b600073ffffffffffffffffffffffffffffffffffffffff82169050919050565b6000819050919050565b600060ff82169050919050565b600061352e82613535565b9050919050565b6000613540826134ec565b9050919050565b82818337600083830152505050565b60005b83811015613574578082015181840152602081019050613559565b83811115613583576000848401525b50505050565b600060028204905060018216806135a157607f821691505b602082108114156135b5576135b461371c565b5b50919050565b6135c48261377a565b810181811067ffffffffffffffff821117156135e3576135e261374b565b5b80604052505050565b60006135f78261350c565b91507fffffffffffffffffffffffffffffffffffffffffffffffffffffffffffffffff82141561362a576136296136be565b5b600182019050919050565b600061364082613516565b915060ff821415613654576136536136be565b5b600182019050919050565b600061366a82613671565b9050919050565b600061367c8261378b565b9050919050565b6000819050919050565b60006136988261350c565b91506136a38361350c565b9250826136b3576136b26136ed565b5b828206905092915050565b7f4e487b7100000000000000000000000000000000000000000000000000000000600052601160045260246000fd5b7f4e487b7100000000000000000000000000000000000000000000000000000000600052601260045260246000fd5b7f4e487b7100000000000000000000000000000000000000000000000000000000600052602260045260246000fd5b7f4e487b7100000000000000000000000000000000000000000000000000000000600052604160045260246000fd5b6000601f19601f8301169050919050565b60008160601b9050919050565b60008160011c9050919050565b7f746f53656e6420636f6d6573206f757420746f206265203c3d20300000000000600082015250565b7f756e61626c6520746f207472616e73666572416e6443616c6c20746f206f726160008201527f636c650000000000000000000000000000000000000000000000000000000000602082015250565b7f746f53656e64206d757374206265203e20300000000000000000000000000000600082015250565b7f74686520666978696e67207761732063616e63656c6c65640000000000000000600082015250565b7f536f75726365206d75737420626520746865206f7261636c65206f662074686560008201527f2072657175657374000000000000000000000000000000000000000000000000602082015250565b7f64656369646557696e6e65722063616e2062652063616c6c6564206f6e6c792060008201527f3120626c6f636b20616674657220636865636b526573756c742e20547279206160208201527f6761696e20696e20666577207365636f6e647300000000000000000000000000604082015250565b7f746865206d61746368206e6565647320746f2062652066696e6973686564206260008201527f65666f726520636c61696d696e67207072697a65730000000000000000000000602082015250565b61398b81613498565b811461399657600080fd5b50565b6139a2816134aa565b81146139ad57600080fd5b50565b6139b9816134b6565b81146139c457600080fd5b50565b6139d08161350c565b81146139db57600080fd5b5056fe68747470733a2f2f7777772e74686573706f72747364622e636f6d2f6170692f76312f6a736f6e2f35303133303136322f6c6f6f6b75706576656e742e7068703f69643da26469706673582212206c5e47aa1f020cbe03679a39869e71809a5dd6abcb2316c1bcfe5e38a16d226164736f6c63430008040033",
  "linkReferences": {},
  "deployedLinkReferences": {}
}