{
  "_format": "hh-sol-artifact-1",
  "contractName": "LinkPool",
  "sourceName": "contracts/LinkPool.sol",
  "abi": [
    {
      "inputs": [],
      "stateMutability": "nonpayable",
      "type": "constructor"
    },
    {
      "inputs": [],
      "name": "getLINKBalance",
      "outputs": [
        {
          "internalType": "uint256",
          "name": "",
          "type": "uint256"
        },
        {
          "internalType": "bool",
          "name": "",
          "type": "bool"
        }
      ],
      "stateMutability": "view",
      "type": "function"
    },
    {
      "inputs": [
        {
          "internalType": "address",
          "name": "_addr",
          "type": "address"
        },
        {
          "internalType": "uint256",
          "name": "_amount",
          "type": "uint256"
        }
      ],
      "name": "sendLinkTo",
      "outputs": [],
      "stateMutability": "nonpayable",
      "type": "function"
    },
    {
      "inputs": [
        {
          "internalType": "address",
          "name": "",
          "type": "address"
        }
      ],
      "name": "verified",
      "outputs": [
        {
          "internalType": "bool",
          "name": "",
          "type": "bool"
        }
      ],
      "stateMutability": "view",
      "type": "function"
    },
    {
      "inputs": [
        {
          "internalType": "address",
          "name": "_addr",
          "type": "address"
        }
      ],
      "name": "verifyAddress",
      "outputs": [],
      "stateMutability": "nonpayable",
      "type": "function"
    },
    {
      "inputs": [],
      "name": "withdrawAllLink",
      "outputs": [],
      "stateMutability": "nonpayable",
      "type": "function"
    }
  ],
  "bytecode": "0x608060405273a36085f69e2889c224210f603d836748e7dc00886000806101000a81548173ffffffffffffffffffffffffffffffffffffffff021916908373ffffffffffffffffffffffffffffffffffffffff16021790555034801561006457600080fd5b5033600260006101000a81548173ffffffffffffffffffffffffffffffffffffffff021916908373ffffffffffffffffffffffffffffffffffffffff160217905550610802806100b56000396000f3fe608060405234801561001057600080fd5b50600436106100575760003560e01c80630db065f41461005c578063ac428e7a1461008c578063ccf03f3a146100ab578063f79a3310146100b5578063fcb2cafc146100d1575b600080fd5b610076600480360381019061007191906105d3565b6100ed565b60405161008391906106fb565b60405180910390f35b61009461010d565b6040516100a2929190610716565b60405180910390f35b6100b36101e8565b005b6100cf60048036038101906100ca91906105fc565b6103c3565b005b6100eb60048036038101906100e691906105d3565b6104cb565b005b60016020528060005260406000206000915054906101000a900460ff1681565b60008060008060009054906101000a900473ffffffffffffffffffffffffffffffffffffffff1673ffffffffffffffffffffffffffffffffffffffff166370a08231306040518263ffffffff1660e01b815260040161016c91906106b7565b60206040518083038186803b15801561018457600080fd5b505afa158015610198573d6000803e3d6000fd5b505050506040513d601f19601f820116820180604052508101906101bc9190610661565b9050678ac7230489e800008111156101db5780600192509250506101e4565b80600092509250505b9091565b3373ffffffffffffffffffffffffffffffffffffffff16600260009054906101000a900473ffffffffffffffffffffffffffffffffffffffff1673ffffffffffffffffffffffffffffffffffffffff161461024257600080fd5b60008060009054906101000a900473ffffffffffffffffffffffffffffffffffffffff1673ffffffffffffffffffffffffffffffffffffffff166370a08231306040518263ffffffff1660e01b815260040161029e91906106b7565b60206040518083038186803b1580156102b657600080fd5b505afa1580156102ca573d6000803e3d6000fd5b505050506040513d601f19601f820116820180604052508101906102ee9190610661565b905060008054906101000a900473ffffffffffffffffffffffffffffffffffffffff1673ffffffffffffffffffffffffffffffffffffffff1663a9059cbb600260009054906101000a900473ffffffffffffffffffffffffffffffffffffffff16836040518363ffffffff1660e01b815260040161036d9291906106d2565b602060405180830381600087803b15801561038757600080fd5b505af115801561039b573d6000803e3d6000fd5b505050506040513d601f19601f820116820180604052508101906103bf9190610638565b5050565b600160003373ffffffffffffffffffffffffffffffffffffffff1673ffffffffffffffffffffffffffffffffffffffff16815260200190815260200160002060009054906101000a900460ff1661041957600080fd5b60008054906101000a900473ffffffffffffffffffffffffffffffffffffffff1673ffffffffffffffffffffffffffffffffffffffff1663a9059cbb83836040518363ffffffff1660e01b81526004016104749291906106d2565b602060405180830381600087803b15801561048e57600080fd5b505af11580156104a2573d6000803e3d6000fd5b505050506040513d601f19601f820116820180604052508101906104c69190610638565b505050565b3373ffffffffffffffffffffffffffffffffffffffff16600260009054906101000a900473ffffffffffffffffffffffffffffffffffffffff1673ffffffffffffffffffffffffffffffffffffffff161461052557600080fd5b60018060008373ffffffffffffffffffffffffffffffffffffffff1673ffffffffffffffffffffffffffffffffffffffff16815260200190815260200160002060006101000a81548160ff02191690831515021790555050565b60008135905061058e81610787565b92915050565b6000815190506105a38161079e565b92915050565b6000813590506105b8816107b5565b92915050565b6000815190506105cd816107b5565b92915050565b6000602082840312156105e557600080fd5b60006105f38482850161057f565b91505092915050565b6000806040838503121561060f57600080fd5b600061061d8582860161057f565b925050602061062e858286016105a9565b9150509250929050565b60006020828403121561064a57600080fd5b600061065884828501610594565b91505092915050565b60006020828403121561067357600080fd5b6000610681848285016105be565b91505092915050565b6106938161073f565b82525050565b6106a281610751565b82525050565b6106b18161077d565b82525050565b60006020820190506106cc600083018461068a565b92915050565b60006040820190506106e7600083018561068a565b6106f460208301846106a8565b9392505050565b60006020820190506107106000830184610699565b92915050565b600060408201905061072b60008301856106a8565b6107386020830184610699565b9392505050565b600061074a8261075d565b9050919050565b60008115159050919050565b600073ffffffffffffffffffffffffffffffffffffffff82169050919050565b6000819050919050565b6107908161073f565b811461079b57600080fd5b50565b6107a781610751565b81146107b257600080fd5b50565b6107be8161077d565b81146107c957600080fd5b5056fea264697066735822122018fe97c2be1dda65ec32c2f171224f34a5053ec2ce46c8bafcf760a8f90520cf64736f6c63430008040033",
  "linkReferences": {},
  "deployedLinkReferences": {}
}